00COTAHIST.2026BOVESPA 20260226                                                                                                                                                                                                                      
012026022602PEAB3       010PAR AL BAHIAON           R$  000000000410000000000041000000000004100000000000410000000000041000000000004100000000000415000002000000000000000500000000000002050000000000000000009999123100000010000000000000BRPEABACNOR3138
012026022602PEAB4       010PAR AL BAHIAPN           R$  000000000413500000000041350000000004135000000000413500000000041350000000004030000000000424000002000000000000000500000000000002067500000000000000009999123100000010000000000000BRPEABACNPR0137
012026022602PETR3       010PETROBRAS   ON      N2   R$  000000000425900000000043080000000004214000000000426800000000042750000000004275000000000427811609000000000008695700000000037117365200000000000000009999123100000010000000000000BRPETRACNOR9212
012026022602PETR4       010PETROBRAS   PN      N2   R$  000000000393000000000039800000000003897000000000394100000000039610000000003960000000000396144146000000000029919100000000117917752500000000000000009999123100000010000000000000BRPETRACNPR6223
012026022602NGRD3       010NEOGRID     ON      NM   R$  000000000261000000000026270000000002489000000000255800000000025100000000002506000000000252400094000000000000040900000000000104633500000000000000009999123100000010000000000000BRNGRDACNOR3106
012026022602SMFT3       010SMART FIT   ON      NM   R$  000000000206400000000020870000000002039000000000206200000000020800000000002074000000000208323305000000000008888000000000018330907100000000000000009999123100000010000000000000BRSMFTACNOR1118
012026022602SMTO3       010SAO MARTINHOON      NM   R$  000000000175600000000017990000000001740000000000177400000000017840000000001783000000000178507715000000000002855400000000005067813000000000000000009999123100000010000000000000BRSMTOACNOR3129
012026022602ENEV3       010ENEVA       ON      NM   R$  000000000217400000000021810000000002112000000000213800000000021600000000002156000000000216026041000000000012710000000000027183170900000000000000009999123100000010000000000000BRENEVACNOR8107
012026022602ISAE3       010ISA ENERGIA ON      N1   R$  000000000351700000000035170000000003448000000000349000000000035100000000003441000000000351000041000000000000004700000000000016405200000000000000009999123100000010000000000000BRISAEACNOR2108
012026022602ISAE4       010ISA ENERGIA PN      N1   R$  000000000286500000000029290000000002847000000000289900000000029080000000002908000000000292210506000000000003619500000000010493135200000000000000009999123100000010000000000000BRISAEACNPR9108
012026022602ITSA3       010ITAUSA      ON      N1   R$  000000000146200000000014770000000001449000000000145900000000014630000000001456000000000146300271000000000000078100000000000113987100000000000000009999123100000010000000000000BRITSAACNOR0455
012026022602ITSA4       010ITAUSA      PN      N1   R$  000000000146200000000014780000000001449000000000146100000000014650000000001462000000000146531424000000000024701600000000036112364200000000000000009999123100000010000000000000BRITSAACNPR7455
012026022602LJQQ3       010QUERO-QUERO ON      NM   R$  000000000022000000000002260000000000219000000000022100000000002230000000000221000000000022303377000000000004126900000000000915314200000000000000009999123100000010000000000000BRLJQQACNOR5105
012026022602LOGG3       010LOG COM PROPON      NM   R$  000000000285300000000029230000000002835000000000287100000000028550000000002855000000000287903745000000000000540900000000001552948500000000000000009999123100000010000000000000BRLOGGACNOR7112
012026022602LOGN3       010LOG-IN      ON      NM   R$  000000000323200000000032630000000003220000000000323700000000032500000000003222000000000325000079000000000000015100000000000048886700000000000000009999123100000010000000000000BRLOGNACNOR3105
012026022602LPSB3       010LOPES BRASILON      NM   R$  000000000018900000000001920000000000186000000000018800000000001890000000000188000000000018900237000000000000086500000000000016346300000000000000009999123100000010000000000000BRLPSBACNOR0116
012026022602LREN3       010LOJAS RENNERON      NM   R$  000000000158000000000016150000000001580000000000160100000000016050000000001605000000000161220986000000000016987800000000027198136400000000000000009999123100000010000000000000BRLRENACNOR1228
012026022602MTRE3       010MITRE REALTYON      NM   R$  000000000041300000000004160000000000410000000000041200000000004120000000000412000000000041300559000000000000255200000000000105327000000000000000009999123100000010000000000000BRMTREACNOR6131
012026022602MTSA4       010METISA      PN           R$  000000000611800000000061180000000006051000000000609500000000061130000000004500000000000611400011000000000000001200000000000007314100000000000000009999123100000010000000000000BRMTSAACNPR9079
012026022602MULT3       010MULTIPLAN   ON      N2   R$  000000000352600000000035960000000003496000000000355600000000035800000000003579000000000359418733000000000004425600000000015738431000000000000000009999123100000010000000000000BRMULTACNOR5145
012026022602MWET4       010WETZEL S/A  PN           R$  000000000106900000000011300000000001010000000000106100000000010450000000001043000000000109400014000000000000001700000000000001803700000000000000009999123100000010000000000000BRMWETACNPR3118
012026022602MYPK3       010IOCHP-MAXIONON      NM   R$  000000000103300000000010830000000001017000000000104500000000010510000000001051000000000105508947000000000003299200000000003450701200000000000000009999123100000010000000000000BRMYPKACNOR7158
012026022602RECV3       010PETRORECSA  ON      NM   R$  000000000119300000000012300000000001184000000000121200000000012260000000001224000000000122810804000000000005243800000000006360312900000000000000009999123100000010000000000000BRRECVACNOR3110
012026022602BRSR6       010BANRISUL    PNB     N1   R$  000000000187300000000018910000000001844000000000186000000000018650000000001858000000000186505680000000000001496800000000002784703400000000000000009999123100000010000000000000BRBRSRACNPB4200
012026022602BRST3       010BRISANET    ON      NM   R$  000000000031900000000003220000000000311000000000031600000000003190000000000318000000000031900717000000000000285400000000000090196500000000000000009999123100000010000000000000BRBRSTACNOR9102
012026022602BSLI3       010BRB BANCO   ON           R$  000000000050700000000005070000000000467000000000048000000000004750000000000471000000000048900067000000000000018500000000000008881900000000000000009999123100000010000000000000BRBSLIACNOR5198
012026022602BSLI4       010BRB BANCO   PN           R$  000000000048600000000005060000000000479000000000048600000000004790000000000480000000000048600075000000000000084500000000000041138000000000000000009999123100000010000000000000BRBSLIACNPR2198
012026022602PCAR3       010P.ACUCAR-CBDON      NM   R$  000000000030500000000003220000000000303000000000031000000000003190000000000318000000000032006421000000000010681000000000003319006900000000000000009999123100000010000000000000BRPCARACNOR3170
012026022602PRNR3       010PRINER      ON      NM   R$  000000000217700000000022000000000002166000000000218700000000021970000000002188000000000219702936000000000000471000000000001030299000000000000000009999123100000010000000000000BRPRNRACNOR4111
012026022602PSSA3       010PORTO SEGUROON      NM   R$  000000000525900000000053070000000005229000000000527400000000052750000000005273000000000528609222000000000001419400000000007486137100000000000000009999123100000010000000000000BRPSSAACNOR7161
012026022602PTBL3       010PORTOBELLO  ON      NM   R$  000000000033100000000003390000000000326000000000033200000000003390000000000338000000000033900231000000000000158300000000000052609500000000000000009999123100000010000000000000BRPTBLACNOR8132
012026022602PTNT4       010PETTENATI   PN           R$  000000000084000000000008400000000000836000000000083900000000008360000000000836000000000084200010000000000000004000000000000003356700000000000000009999123100000010000000000000BRPTNTACNPR3049
012026022602RIAA3       010RIACHUELO   ON      NM   R$  000000000102700000000010400000000001004000000000102500000000010250000000001025000000000103306431000000000002732000000000002800554800000000000000009999123100000010000000000000BRRIAAACNOR2100
012026022602SNSY5       010SANSUY      PNA          R$  000000000024500000000002640000000000245000000000025100000000002590000000000245000000000026000016000000000000003500000000000000879200000000000000009999123100000010000000000000BRSNSYACNPA5111
012026022602SOJA3       010BOA SAFRA   ON      NM   R$  000000000083700000000008430000000000819000000000082600000000008190000000000818000000000082402405000000000001512300000000001250135800000000000000009999123100000010000000000000BRSOJAACNOR9109
012026022602SOND6       010SONDOTECNICAPNB          R$  000000000562000000000056200000000005620000000000562000000000056200000000005620000000000800000003000000000000000500000000000002810000000000000000009999123100000010000000000000BRSONDACNPB6168
012026022602HYPE3       010HYPERA      ON      NM   R$  000000000243100000000024310000000002356000000000237600000000023750000000002372000000000238708300000000000002077200000000004936740400000000000000009999123100000010000000000000BRHYPEACNOR0150
012026022602FRAS3       010FRAS-LE     ON      N1   R$  000000000245500000000024730000000002450000000000246100000000024570000000002457000000000246701047000000000000183400000000000451460700000000000000009999123100000010000000000000BRFRASACNOR0163
012026022602GFSA3       010GAFISA      ON      NM   R$  000000000022000000000002540000000000219000000000023700000000002500000000000250000000000025202865000000000003873300000000000920435800000000000000009999123100000010000000000000BRGFSAACNOR3127
012026022602GGBR3       010GERDAU      ON      N1   R$  000000000186900000000018700000000001797000000000182400000000018130000000001813000000000182000332000000000000081400000000000148506200000000000000009999123100000010000000000000BRGGBRACNOR1198
012026022602GGBR4       010GERDAU      PN      N1   R$  000000000215000000000021500000000002097000000000211800000000021080000000002108000000000210919870000000000014080800000000029832742600000000000000009999123100000010000000000000BRGGBRACNPR8198
012026022602AMAR3       010LOJAS MARISAON      NM   R$  000000000009300000000000930000000000089000000000009000000000000900000000000090000000000009100322000000000000249500000000000022512200000000000000009999123100000010000000000000BRAMARACNOR4115
012026022602AMOB3       010AUTOMOB     ON      NM   R$  000000000131900000000013450000000001310000000000132900000000013200000000001320000000000133900134000000000000020000000000000026589500000000000000009999123100000010000000000000BRAMOBACNOR9101
012026022602ANIM3       010ANIMA       ON      NM   R$  000000000050400000000005230000000000504000000000051500000000005100000000000509000000000051407223000000000003738100000000001927480300000000000000009999123100000010000000000000BRANIMACNOR6110
012026022602BRAP3       010BRADESPAR   ON      N1   R$  000000000216900000000021710000000002108000000000213500000000021430000000002143000000000214700448000000000000070300000000000150157400000000000000009999123100000010000000000000BRBRAPACNOR5153
012026022602BRAP4       010BRADESPAR   PN      N1   R$  000000000250800000000025160000000002462000000000248200000000024930000000002491000000000249508293000000000002477900000000006151878600000000000000009999123100000010000000000000BRBRAPACNPR2153
012026022602CYRE3       010CYRELA REALTON      NM   R$  000000000318200000000032100000000003120000000000315600000000031600000000003159000000000316521601000000000005320500000000016793893700000000000000009999123100000010000000000000BRCYREACNOR7143
012026022602CYRE4       010CYRELA REALTPN      NM   R$  000000000299700000000030410000000002975000000000300000000000029750000000002975000000000300003709000000000000610200000000001831079300000000000000009999123100000010000000000000BRCYREACNPR4114
012026022602EUCA4       010EUCATEX     PN      N1   R$  000000000212400000000021910000000002119000000000214400000000021490000000002141000000000214900118000000000000018500000000000039678400000000000000009999123100000010000000000000BREUCAACNPR8046
012026022602EVEN3       010EVEN        ON      NM   R$  000000000084700000000008490000000000833000000000084000000000008420000000000840000000000084402750000000000000710700000000000597124500000000000000009999123100000010000000000000BREVENACNOR8121
012026022602BPAC11      010BTGP BANCO  UNT     N2   R$  000000000619500000000062640000000006125000000000617700000000062040000000006198000000000620725942000000000011718500000000072394386300000000000000009999123100000010000000000000BRBPACUNT006128
012026022602BPAC3       010BTGP BANCO  ON      N2   R$  000000000451600000000045870000000004452000000000449300000000044890000000004452000000000450000054000000000000006000000000000026961600000000000000009999123100000010000000000000BRBPACACNOR7139
012026022602BPAC5       010BTGP BANCO  PNA     N2   R$  000000000115600000000011720000000001146000000000116000000000011660000000001156000000000116500047000000000000011100000000000012879300000000000000009999123100000010000000000000BRBPACACNPA0139
012026022602CMIG3       010CEMIG       ON      N1   R$  000000000159900000000016060000000001576000000000159300000000016060000000001593000000000160600283000000000000045500000000000072494200000000000000009999123100000010000000000000BRCMIGACNOR6251
012026022602CMIG4       010CEMIG       PN      N1   R$  000000000123600000000012430000000001215000000000122600000000012270000000001226000000000122816074000000000011909600000000014609525600000000000000009999123100000010000000000000BRCMIGACNPR3252
012026022602CSUD3       010CSU DIGITAL ON      NM   R$  000000000190900000000019370000000001903000000000191900000000019260000000001911000000000192600318000000000000042100000000000080801800000000000000009999123100000010000000000000BRCSUDACNOR5117
012026022602CTKA4       010KARSTEN     PN           R$  000000000494800000000049480000000004755000000000486800000000048000000000004800000000000494000005000000000000000500000000000002434100000000000000009999123100000010000000000000BRCTKAACNPR7043
012026022602CURY3       010CURY S/A    ON      NM   R$  000000000394600000000039780000000003897000000000394300000000039500000000003950000000000397013337000000000002624500000000010349350300000000000000009999123100000010000000000000BRCURYACNOR3116
012026022602CVCB3       010CVC BRASIL  ON      NM   R$  000000000022600000000002310000000000225000000000022800000000002300000000000230000000000023105052000000000010204600000000002328305400000000000000009999123100000010000000000000BRCVCBACNOR1118
012026022602SUZB3       010SUZANO S.A. ON      NM   R$  000000000589100000000059650000000005837000000000589300000000058980000000005896000000000589822590000000000006986000000000041171359500000000000000009999123100000010000000000000BRSUZBACNOR0135
012026022602ENGI11      010ENERGISA    UNT     N2   R$  000000000544300000000055460000000005418000000000548900000000055300000000005529000000000553010795000000000002842900000000015607411000000000000000009999123100000010000000000000BRENGICDAM16140
012026022602ENGI3       010ENERGISA    ON      N2   R$  000000000129000000000013000000000001267000000000128200000000012670000000001266000000000130000031000000000000007200000000000009237100000000000000009999123100000010000000000000BRENGIACNOR0150
012026022602ENGI4       010ENERGISA    PN      N2   R$  000000000104600000000011000000000001034000000000105900000000010590000000001059000000000106000039000000000000008700000000000009218300000000000000009999123100000010000000000000BRENGIACNPR7146
012026022602ENJU3       010ENJOEI      ON      NM   R$  000000000011500000000001190000000000114000000000011700000000001170000000000117000000000011900394000000000000378100000000000044498300000000000000009999123100000010000000000000BRENJUACNOR9100
012026022602ENMT3       010ENERGISA MT ON           R$  000000000485000000000050880000000004850000000000506000000000050880000000004650000000000520000010000000000000003500000000000017712800000000000000009999123100000010000000000000BRENMTACNOR5125
012026022602ENMT4       010ENERGISA MT PN           R$  000000000520000000000052000000000005200000000000520000000000052000000000004535000000000520000001000000000000000100000000000000520000000000000000009999123100000010000000000000BRENMTACNPR2130
012026022602EPAR3       010EMBPAR S/A  ON           R$  000000000035000000000003500000000000343000000000034500000000003460000000000345000000000034800032000000000000026800000000000009271500000000000000009999123100000010000000000000BREPARACNOR9107
012026022602EQPA3       010EQTL PARA   ON           R$  000000000064000000000006490000000000639000000000064400000000006490000000000641000000000064900012000000000000001600000000000001031100000000000000009999123100000010000000000000BREQPAACNOR1112
012026022602EQTL3       010EQUATORIAL  ON      NM   R$  000000000423500000000042900000000004197000000000425900000000042900000000004285000000000429217550000000000006877500000000029294212500000000000000009999123100000010000000000000BREQTLACNOR0135
012026022602HBOR3       010HELBOR      ON      NM   R$  000000000031900000000003250000000000311000000000031600000000003150000000000314000000000031500729000000000000932900000000000295726000000000000000009999123100000010000000000000BRHBORACNOR3120
012026022602HBRE3       010HBR REALTY  ON      NM   R$  000000000034400000000003490000000000335000000000034000000000003390000000000338000000000033900985000000000000632000000000000214914300000000000000009999123100000010000000000000BRHBREACNOR4101
012026022602HBSA3       010HIDROVIAS   ON      NM   R$  000000000041300000000004170000000000405000000000041000000000004110000000000410000000000041103052000000000002082700000000000855629600000000000000009999123100000010000000000000BRHBSAACNOR0102
012026022602QUAL3       010QUALICORP   ON      NM   R$  000000000026400000000002640000000000245000000000025300000000002450000000000244000000000024504867000000000004131900000000001049082500000000000000009999123100000010000000000000BRQUALACNOR6122
012026022602LUPA3       010LUPATECH    ON      NM   R$  000000000011900000000001220000000000118000000000011900000000001220000000000120000000000012200030000000000000050800000000000006059400000000000000009999123100000010000000000000BRLUPAACNOR8112
012026022602LUXM4       010TREVISA     PN           R$  000000000043000000000004300000000000410000000000041300000000004120000000000412000000000042000008000000000000002000000000000000826700000000000000009999123100000010000000000000BRLUXMACNPR4053
012026022602LWSA3       010LWSA        ON      NM   R$  000000000035300000000003670000000000352000000000035700000000003640000000000363000000000036508066000000000010070400000000003599438900000000000000009999123100000010000000000000BRLWSAACNOR8106
012026022602NATU3       010NATURA      ON      NM   R$  000000000099000000000009950000000000954000000000097400000000009610000000000959000000000096213499000000000009942900000000009687290700000000000000009999123100000010000000000000BRNATUACNOR6137
012026022602NEOE3       010NEOENERGIA  ON      NM   R$  000000000328000000000032850000000003280000000000328300000000032850000000003284000000000328601434000000000000512800000000001683524200000000000000009999123100000010000000000000BRNEOEACNOR3127
012026022602REDE3       010REDE ENERGIAON           R$  000000000062800000000006400000000000628000000000063300000000006400000000000635000000000063900015000000000000004000000000000002533600000000000000009999123100000010000000000000BRREDEACNOR7134
012026022602RENT3       010LOCALIZA    ON      NM   R$  000000000514200000000051750000000005044000000000508800000000050450000000005045000000000505827785000000000010536100000000053615040300000000000000009999123100000010000000000000BRRENTACNOR4205
012026022602RENT4       010LOCALIZA    PN      NM   R$  000000000499800000000049990000000004880000000000492300000000048850000000004882000000000488501061000000000000149000000000000733606600000000000000009999123100000010000000000000BRRENTACNPR1100
012026022602CAMB3       010CAMBUCI     ON           R$  000000000095700000000009680000000000945000000000095100000000009450000000000944000000000095300081000000000000021600000000000020556400000000000000009999123100000010000000000000BRCAMBACNOR4136
012026022602CAML3       010CAMIL       ON      NM   R$  000000000068000000000006960000000000676000000000068800000000006910000000000690000000000069101517000000000000576800000000000397191200000000000000009999123100000010000000000000BRCAMLACNOR3134
012026022602CASH3       010MELIUZ      ON      NM   R$  000000000036000000000003690000000000346000000000035300000000003580000000000352000000000035801354000000000001429200000000000504816500000000000000009999123100000010000000000000BRCASHACNOR8107
012026022602CSNA3       010SID NACIONALON           R$  000000000085800000000008730000000000842000000000085600000000008630000000000862000000000086413656000000000012533800000000010733358300000000000000009999123100000010000000000000BRCSNAACNOR6264
012026022602GOLL54      010GOL         PN *P        R$  000000000113000000000011350000000001125000000000112900000000011350000000001135000000000113700144000000000023628000000000000026697052000000000000009999123100010000000000000000BRGOLLA01PR5100
012026022602GRND3       010GRENDENE    ON      NM   R$  000000000049800000000005100000000000497000000000050600000000005070000000000506000000000051008678000000000004758800000000002409790500000000000000009999123100000010000000000000BRGRNDACNOR3182
012026022602HAGA3       010HAGA S/A    ON           R$  000000000021800000000002350000000000218000000000022900000000002270000000000227000000000023400017000000000000006000000000000001377600000000000000009999123100000010000000000000BRHAGAACNOR7103
012026022602HAGA4       010HAGA S/A    PN           R$  000000000013700000000001500000000000133000000000013900000000001450000000000136000000000014500055000000000000032400000000000004527800000000000000009999123100000010000000000000BRHAGAACNPR4103
012026022602HAPV3       010HAPVIDA     ON      NM   R$  000000000103000000000011180000000001030000000000108400000000010750000000001074000000000107826869000000000015745500000000017074943200000000000000009999123100000010000000000000BRHAPVACNOR4119
012026022602EZTC3       010EZTEC       ON      NM   R$  000000000157200000000016000000000001565000000000158100000000015720000000001572000000000158105931000000000001768900000000002798280300000000000000009999123100000010000000000000BREZTCACNOR0132
012026022602ADMF3       010CIABRASF    ON      NM   R$  000000000110000000000011000000000001000000000000103300000000010000000000000950000000000240000002000000000000000300000000000000310000000000000000009999123100000010000000000000BRADMFACNOR3101
012026022602AERI3       010AERIS       ON      NM   R$  000000000027800000000002820000000000278000000000027900000000002780000000000278000000000028000101000000000000026200000000000007324400000000000000009999123100000010000000000000BRAERIACNOR4102
012026022602AFLT3       010AFLUENTE T  ON           R$  000000000075900000000007590000000000759000000000075900000000007590000000000731000000000075800001000000000000000200000000000000151800000000000000009999123100000010000000000000BRAFLTACNOR1126
012026022602AGRO3       010BRASILAGRO  ON      NM   R$  000000000215800000000022160000000002154000000000218700000000022160000000002198000000000221801670000000000000282700000000000618467600000000000000009999123100000010000000000000BRAGROACNOR7116
012026022602ALLD3       010ALLIED      ON      NM   R$  000000000076000000000007600000000000741000000000074800000000007500000000000746000000000075001411000000000000510300000000000381871600000000000000009999123100000010000000000000BRALLDACNOR3110
012026022602ALOS3       010ALLOS       ON  ED  NM   R$  000000000321300000000032880000000003210000000000325900000000032880000000003280000000000328824451000000000007988100000000026039671700000000000000009999123100000010000000000000BRALOSACNOR5119
012026022602BLAU3       010BLAU        ON      NM   R$  000000000109000000000010990000000001077000000000108900000000010970000000001089000000000109701164000000000000260600000000000283821600000000000000009999123100000010000000000000BRBLAUACNOR8120
012026022602BMEB3       010MERCANTIL   ON      N1   R$  000000000718000000000074630000000007113000000000729200000000073000000000007112000000000739200042000000000000008500000000000061982800000000000000009999123100000010000000000000BRBMEBACNOR8210
012026022602BMEB4       010MERCANTIL   PN      N1   R$  000000000768100000000081800000000007681000000000803700000000081700000000008004000000000817000334000000000000058400000000000469409800000000000000009999123100000010000000000000BRBMEBACNPR5215
012026022602BMGB4       010BANCO BMG   PN      N1   R$  000000000048100000000004950000000000481000000000048800000000004940000000000493000000000049401118000000000001460400000000000713176300000000000000009999123100000010000000000000BRBMGBACNPR0118
012026022602BMKS3       010BIC MONARK  ON           R$  000000003730000000000387830000000037100000000003744800000000372900000000037208000000003750000024000000000000000112000000000004194179000000000000009999123100000010000000000000BRBMKSACNOR9169
012026022602BMOB3       010BEMOBI TECH ON      NM   R$  000000000238700000000024440000000002374000000000240500000000024190000000002419000000000243802009000000000000306100000000000736407400000000000000009999123100000010000000000000BRBMOBACNOR7107
012026022602BNBR3       010NORD BRASIL ON           R$  000000001204000000000120400000000012038000000001203900000000120380000000012000000000001220000004000000000000000800000000000009631300000000000000009999123100000010000000000000BRBNBRACNOR8211
012026022602EALT3       010ACO ALTONA  ON           R$  000000000145500000000014550000000001455000000000145500000000014550000000001413000000000145600003000000000000001600000000000002328000000000000000009999123100000010000000000000BREALTACNOR4140
012026022602EALT4       010ACO ALTONA  PN           R$  000000000145100000000014570000000001429000000000143600000000014440000000001439000000000144900100000000000000014000000000000020108900000000000000009999123100000010000000000000BREALTACNPR1140
012026022602ECOR3       010ECORODOVIAS ON      NM   R$  000000000106900000000010810000000001055000000000106900000000010760000000001073000000000107708217000000000003110300000000003327732300000000000000009999123100000010000000000000BRECORACNOR8122
012026022602RADL3       010RAIADROGASILON      NM   R$  000000000257700000000025880000000002526000000000255600000000025650000000002565000000000256830344000000000008646800000000022109635700000000000000009999123100000010000000000000BRRADLACNOR0165
012026022602TAEE11      010TAESA       UNT     N2   R$  000000000440200000000044800000000004386000000000443500000000044650000000004432000000000446606827000000000001463600000000006491595900000000000000009999123100000010000000000000BRTAEECDAM10153
012026022602TAEE3       010TAESA       ON      N2   R$  000000000146500000000014760000000001448000000000146100000000014590000000001456000000000145900287000000000000114300000000000167056800000000000000009999123100000010000000000000BRTAEEACNOR9153
012026022602TAEE4       010TAESA       PN      N2   R$  000000000149000000000014980000000001466000000000148000000000014750000000001474000000000149400376000000000000079600000000000117826000000000000000009999123100000010000000000000BRTAEEACNPR6153
012026022602GMAT3       010GRUPO MATEUSON      NM   R$  000000000057900000000005870000000000577000000000058200000000005800000000000580000000000058508402000000000007027000000000004089717900000000000000009999123100000010000000000000BRGMATACNOR7109
012026022602GOAU3       010GERDAU MET  ON      N1   R$  000000000091300000000009290000000000903000000000091400000000009070000000000907000000000091600383000000000000165300000000000151115100000000000000009999123100000010000000000000BRGOAUACNOR1274
012026022602GOAU4       010GERDAU MET  PN      N1   R$  000000000096000000000009640000000000940000000000094700000000009450000000000945000000000094710739000000000010052900000000009528680800000000000000009999123100000010000000000000BRGOAUACNPR8275
012026022602MDIA3       010M.DIASBRANCOON  ED  NM   R$  000000000259400000000026450000000002590000000000262200000000026160000000002615000000000261602548000000000000646800000000001696476900000000000000009999123100000010000000000000BRMDIAACNOR7151
012026022602MDNE3       010MOURA DUBEUXON      NM   R$  000000000336000000000033900000000003295000000000333900000000033710000000003337000000000337305199000000000000962400000000003213816600000000000000009999123100000010000000000000BRMDNEACNOR9104
012026022602MEAL3       010IMC S/A     ON      NM   R$  000000000012200000000001230000000000119000000000012000000000001190000000000119000000000012000096000000000000185500000000000022374700000000000000009999123100000010000000000000BRMEALACNOR9105
012026022602MELK3       010MELNICK     ON      NM   R$  000000000040800000000004130000000000403000000000040600000000004030000000000403000000000040603772000000000000869500000000000353461300000000000000009999123100000010000000000000BRMELKACNOR8116
012026022602MGEL4       010MANGELS INDLPN           R$  000000000063800000000006380000000000596000000000061900000000006100000000000605000000000061700021000000000000020500000000000012699300000000000000009999123100000010000000000000BRMGELACNPR3147
012026022602MGLU3       010MAGAZ LUIZA ON      NM   R$  000000000095100000000009690000000000947000000000095800000000009580000000000957000000000095914653000000000012048700000000011553175900000000000000009999123100000010000000000000BRMGLUACNOR2130
012026022602PDGR3       010PDG REALT   ON      NM   R$  000000000021800000000002220000000000216000000000021900000000002190000000000218000000000021900051000000000000019000000000000004169000000000000000009999123100000010000000000000BRPDGRACNOR8123
012026022602PDTC3       010PADTEC      ON      NM   R$  000000000016700000000001710000000000163000000000016800000000001660000000000166000000000016900115000000000000079200000000000013323500000000000000009999123100000010000000000000BRPDTCACNOR3101
012026022602BEEF3       010MINERVA     ON      NM   R$  000000000052800000000005290000000000519000000000052300000000005230000000000522000000000052425992000000000016471600000000008616618900000000000000009999123100000010000000000000BRBEEFACNOR6120
012026022602BRBI11      010BR PARTNERS UNT     N2   R$  000000000195100000000019800000000001926000000000195400000000019800000000001967000000000198101291000000000000234500000000000458213700000000000000009999123100000010000000000000BRBRBICDAM10116
012026022602BRKM3       010BRASKEM     ON      N1   R$  000000000091600000000009250000000000896000000000090500000000009010000000000896000000000091100045000000000000006700000000000006066600000000000000009999123100000010000000000000BRBRKMACNOR1119
012026022602BRKM5       010BRASKEM     PNA     N1   R$  000000000095500000000009640000000000933000000000094400000000009480000000000948000000000095003803000000000002164700000000002044272500000000000000009999123100000010000000000000BRBRKMACNPA4123
012026022602NUTR3       010NUTRIPLANT  ON      MA   R$  000000000023900000000002440000000000239000000000024100000000002420000000000240000000000024200012000000000000001200000000000000289400000000000000009999123100000010000000000000BRNUTRACNOR0104
012026022602OBTC3       010ORANJEBTC   ON           R$  000000000074000000000007490000000000703000000000072400000000007140000000000714000000000071501872000000000000389700000000000282398700000000000000009999123100000010000000000000BROBTCACNOR0100
012026022602ODPV3       010ODONTOPREV  ON      NM   R$  000000000125500000000013330000000001247000000000130100000000012850000000001284000000000129007982000000000004424500000000005760649900000000000000009999123100000010000000000000BRODPVACNOR4213
012026022602OFSA3       010OUROFINO S/AON      NM   R$  000000000235200000000024100000000002352000000000240100000000024020000000002401000000000244200047000000000000067000000000000160897000000000000000009999123100000010000000000000BROFSAACNOR7122
012026022602ONCO3       010ONCOCLINICASON      NM   R$  000000000026300000000002730000000000256000000000026200000000002700000000000269000000000027002636000000000005254900000000001381862900000000000000009999123100000010000000000000BRONCOACNOR6102
012026022602OPCT3       010OCEANPACT   ON      NM   R$  000000000093400000000009550000000000928000000000094300000000009530000000000945000000000095302024000000000000367600000000000346802100000000000000009999123100000010000000000000BROPCTACNOR0100
012026022602ORVR3       010ORIZON      ON      NM   R$  000000000738400000000075560000000007271000000000746300000000075300000000007526000000000753006086000000000000815500000000006086541100000000000000009999123100000010000000000000BRORVRACNOR0101
012026022602CBAV3       010CBA         ON      NM   R$  000000000101900000000010230000000001018000000000101900000000010180000000001018000000000101902832000000000002840900000000002895690700000000000000009999123100000010000000000000BRCBAVACNOR5104
012026022602CBEE3       010AMPLA ENERG ON           R$  000000000100000000000010000000000001000000000000100000000000010000000000000998000000000106200002000000000000000200000000000000200000000000000000009999123100000010000000000000BRCBEEACNOR3163
012026022602CEAB3       010CEA MODAS   ON      NM   R$  000000000128700000000013520000000001287000000000132900000000013270000000001326000000000132917130000000000010325600000000013728770600000000000000009999123100000010000000000000BRCEABACNOR1105
012026022602CEBR3       010CEB         ON           R$  000000000309700000000030970000000003066000000000308800000000030850000000003085000000000314500012000000000000001400000000000004323700000000000000009999123100000010000000000000BRCEBRACNOR5129
012026022602RNEW3       010RENOVA      ON      N2   R$  000000000012400000000001270000000000118000000000012200000000001270000000000123000000000012700201000000000000114300000000000013999100000000000000009999123100000010000000000000BRRNEWACNOR8113
012026022602RNEW4       010RENOVA      PN      N2   R$  000000000011500000000001270000000000113000000000012100000000001220000000000122000000000012500258000000000000303700000000000036831000000000000000009999123100000010000000000000BRRNEWACNPR5113
012026022602ROMI3       010ROMI        ON      NM   R$  000000000081800000000008260000000000818000000000082100000000008220000000000820000000000082200645000000000000268000000000000220074400000000000000009999123100000010000000000000BRROMIACNOR8201
012026022602RSUL4       010RIOSULENSE  PN           R$  000000000706700000000070670000000007041000000000705100000000070480000000006590000000000704800005000000000000000700000000000004935700000000000000009999123100000010000000000000BRRSULACNPR3116
012026022602RVEE3       010REVEE       ON      NM   R$  000000000017100000000001710000000000160000000000016200000000001620000000000157000000000018900011000000000000004200000000000000682800000000000000009999123100000010000000000000BRRVEEACNOR9102
012026022602CLSC4       010CELESC      PN      N2   R$  000000001525000000000152500000000015140000000001519400000000152490000000015130000000001525000017000000000000001700000000000025830700000000000000009999123100000010000000000000BRCLSCACNPR3138
012026022602AZEV3       010AZEVEDO     ON           R$  000000000002500000000000260000000000024000000000002500000000000250000000000025000000000002600093000000000000556000000000000014065200000000000000009999123100000010000000000000BRAZEVACNOR0123
012026022602AZEV4       010AZEVEDO     PN           R$  000000000002000000000000200000000000019000000000001900000000000200000000000019000000000002000172000000000001042800000000000020745400000000000000009999123100000010000000000000BRAZEVACNPR7123
012026022602AZTE3       010AZT ENERGIA ON           R$  000000000002900000000000300000000000028000000000002800000000000280000000000028000000000002900259000000000001792300000000000051243000000000000000009999123100000010000000000000BRAZTEACNOR4101
012026022602EGIE3       010ENGIE BRASILON      NM   R$  000000000332400000000033820000000003270000000000336000000000033810000000003377000000000338109315000000000002125600000000007143707000000000000000009999123100000010000000000000BREGIEACNOR9132
012026022602RAIL3       010RUMO S.A.   ON      NM   R$  000000000167100000000016790000000001637000000000165400000000016630000000001656000000000166315909000000000008368900000000013843451200000000000000009999123100000010000000000000BRRAILACNOR9106
012026022602SAPR11      010SANEPAR     UNT     N2   R$  000000000472700000000047590000000004532000000000460700000000046400000000004620000000000464112300000000000002064100000000009511024600000000000000009999123100000010000000000000BRSAPRCDAM13121
012026022602SAPR3       010SANEPAR     ON      N2   R$  000000000112800000000011390000000001083000000000110000000000011110000000001100000000000111100860000000000000266200000000000292976700000000000000009999123100000010000000000000BRSAPRACNOR9162
012026022602SAPR4       010SANEPAR     PN      N2   R$  000000000089200000000009030000000000861000000000087700000000008790000000000877000000000087903033000000000001267700000000001112421100000000000000009999123100000010000000000000BRSAPRACNPR6162
012026022602SYNE3       010SYN PROP TECON      NM   R$  000000000048300000000004870000000000482000000000048400000000004870000000000485000000000048700650000000000000188000000000000091108900000000000000009999123100000010000000000000BRSYNEACNOR2107
012026022602AALR3       010ALLIAR      ON      NM   R$  000000000050600000000005320000000000483000000000050400000000005240000000000517000000000052400142000000000000057600000000000029073200000000000000009999123100000010000000000000BRAALRACNOR6104
012026022602FESA4       010FERBASA     PN      N1   R$  000000000083900000000008420000000000824000000000083200000000008360000000000835000000000083701927000000000000496900000000000413779500000000000000009999123100000010000000000000BRFESAACNPR5090
012026022602FHER3       010FER HERINGERON      NM   R$  000000000041200000000004150000000000400000000000040300000000004120000000000400000000000041200034000000000000022800000000000009207900000000000000009999123100000010000000000000BRFHERACNOR5103
012026022602FICT3       010FICTORALIMENON           R$  000000000007000000000000700000000000060000000000006100000000000630000000000060000000000006300116000000000000128200000000000007940500000000000000009999123100000010000000000000BRFICTACNOR3101
012026022602FIQE3       010UNIFIQUE    ON      NM   R$  000000000052700000000005290000000000516000000000052300000000005250000000000525000000000052801580000000000000547900000000000286931100000000000000009999123100000010000000000000BRFIQEACNOR5112
012026022602FLRY3       010FLEURY      ON      NM   R$  000000000175700000000017650000000001713000000000173200000000017240000000001724000000000172910330000000000003176600000000005504558200000000000000009999123100000010000000000000BRFLRYACNOR5143
012026022602ALPA3       010ALPARGATAS  ON      N1   R$  000000000127900000000013160000000001275000000000129000000000012900000000001290000000000130000070000000000000026100000000000033693800000000000000009999123100000010000000000000BRALPAACNOR0234
012026022602ALPA4       010ALPARGATAS  PN      N1   R$  000000000150500000000015480000000001505000000000153000000000015260000000001525000000000154204086000000000001102200000000001686685000000000000000009999123100000010000000000000BRALPAACNPR7235
012026022602ALPK3       010ESTAPAR     ON      NM   R$  000000000052900000000005320000000000518000000000052400000000005180000000000518000000000052200588000000000000159000000000000083454300000000000000009999123100000010000000000000BRALPKACNOR9101
012026022602ALUP11      010ALUPAR      UNT     N2   R$  000000000361900000000036320000000003557000000000360700000000036230000000003616000000000362905921000000000000956700000000003450986700000000000000009999123100000010000000000000BRALUPCDAM15126
012026022602ALUP3       010ALUPAR      ON      N2   R$  000000000130400000000013470000000001299000000000132000000000013470000000001298000000000134700050000000000000017200000000000022719500000000000000009999123100000010000000000000BRALUPACNOR8126
012026022602ALUP4       010ALUPAR      PN      N2   R$  000000000113600000000011480000000001126000000000114300000000011400000000001124000000000114800032000000000000004800000000000005486800000000000000009999123100000010000000000000BRALUPACNPR5126
012026022602AZUL53      010AZUL        ON  P   N2   R$  000000002144800000000230000000000021100000000002170000000000218500000000021850000000002188801236000000036152000000000000000786959092000000000000009999123110000000000000000000BRAZULA01OR8102
012026022602AZZA3       010AZZAS 2154  ON      NM   R$  000000000262300000000027280000000002623000000000267600000000026520000000002649000000000265210335000000000003134900000000008390838000000000000000009999123100000010000000000000BRAZZAACNOR9104
012026022602UCAS3       010UNICASA     ON      NM   R$  000000000014400000000001450000000000143000000000014300000000001430000000000143000000000014500049000000000000017100000000000002457600000000000000009999123100000010000000000000BRUCASACNOR1114
012026022602CMIN3       010CSNMINERACAOON      N2   R$  000000000054900000000005560000000000542000000000055000000000005510000000000550000000000055208710000000000010183300000000005602168100000000000000009999123100000010000000000000BRCMINACNOR2116
012026022602COCE5       010COELCE      PNA          R$  000000000307200000000032430000000003072000000000317900000000031400000000003140000000000317000140000000000000024900000000000079165600000000000000009999123100000010000000000000BRCOCEACNPA3150
012026022602COGN3       010COGNA ON    ON      NM   R$  000000000036000000000003630000000000353000000000035700000000003550000000000355000000000035716947000000000017986300000000006425874200000000000000009999123100000010000000000000BRCOGNACNOR2110
012026022602UGPA3       010ULTRAPAR    ON      NM   R$  000000000269900000000027130000000002653000000000267400000000026700000000002670000000000267920806000000000008995600000000024057863400000000000000009999123100000010000000000000BRUGPAACNOR8159
012026022602UNIP3       010UNIPAR      ON           R$  000000000655800000000066900000000006449000000000654500000000064960000000006453000000000666000108000000000000015100000000000098842600000000000000009999123100000010000000000000BRUNIPACNOR7210
012026022602UNIP5       010UNIPAR      PNA          R$  000000000701400000000070370000000006981000000000699200000000070370000000006977000000000716900006000000000000001000000000000006992100000000000000009999123100000010000000000000BRUNIPACNPA0212
012026022602UNIP6       010UNIPAR      PNB          R$  000000000715800000000072220000000006904000000000709500000000070970000000007089000000000713004064000000000000630500000000004473566000000000000000009999123100000010000000000000BRUNIPACNPB8210
012026022602BEES3       010BANESTES    ON           R$  000000000087900000000008800000000000870000000000087600000000008770000000000876000000000087900050000000000000011100000000000009725600000000000000009999123100000010000000000000BRBEESACNOR9415
012026022602BEES4       010BANESTES    PN           R$  000000000088000000000008880000000000877000000000088400000000008840000000000880000000000088900021000000000000004000000000000003537900000000000000009999123100000010000000000000BRBEESACNPR6340
012026022602CRPG3       010CRISTAL     ON           R$  000000000196200000000019620000000001961000000000196100000000019610000000001840000000000270000003000000000000000500000000000000980600000000000000009999123100000010000000000000BRCRPGACNOR0119
012026022602CRPG5       010CRISTAL     PNA          R$  000000000193200000000019320000000001875000000000189400000000018940000000001851000000000189500007000000000000000800000000000001515800000000000000009999123100000010000000000000BRCRPGACNPA3119
012026022602CSAN3       010COSAN       ON  ATZ NM   R$  000000000064700000000006690000000000646000000000065900000000006640000000000664000000000066520796000000000031041800000000020476521600000000000000009999123100000010000000000000BRCSANACNOR6129
012026022602BBSE3       010BBSEGURIDADEON  EDR NM   R$  000000000349700000000035190000000003478000000000350800000000035110000000003509000000000351114552000000000014668000000000051456844500000000000000009999123100000010000000000000BRBBSEACNOR5128
012026022602BRAV3       010BRAVA       ON      NM   R$  000000000184600000000018600000000001822000000000183900000000018570000000001856000000000185819793000000000006822000000000012552475500000000000000009999123100000010000000000000BRBRAVACNOR3103
012026022602CPFE3       010CPFL ENERGIAON      NM   R$  000000000509700000000051650000000005070000000000513700000000051650000000005165000000000516708909000000000001714100000000008806432700000000000000009999123100000010000000000000BRCPFEACNOR0138
012026022602CPLE3       010COPEL       ON      NM   R$  000000000148800000000015020000000001481000000000149000000000014950000000001492000000000149623178000000000014844400000000022125953600000000000000009999123100000010000000000000BRCPLEACNOR8153
012026022602CXSE3       010CAIXA SEGURION      NM   R$  000000000183000000000018650000000001827000000000184800000000018540000000001852000000000186012508000000000005340100000000009871377300000000000000009999123100000010000000000000BRCXSEACNOR7114
012026022602ESPA3       010ESPACOLASER ON      NM   R$  000000000011200000000001140000000000110000000000011200000000001130000000000113000000000011400837000000000000136600000000000015345800000000000000009999123100000010000000000000BRESPAACNOR7105
012026022602ETER3       010ETERNIT     ON      NM   R$  000000000040500000000004070000000000401000000000040400000000004020000000000402000000000040600310000000000000098900000000000040010300000000000000009999123100000010000000000000BRETERACNOR3246
012026022602EUCA3       010EUCATEX     ON      N1   R$  000000000239400000000023940000000002325000000000235900000000023250000000002130000000000239500002000000000000000200000000000000471900000000000000009999123100000010000000000000BREUCAACNOR1159
012026022602AUAU3       010PETZCOBASI  ON      NM   R$  000000000030200000000003100000000000301000000000030600000000003060000000000306000000000030902995000000000003528100000000001079696400000000000000009999123100000010000000000000BRAUAUACNOR1100
012026022602AURE3       010AUREN       ON      NM   R$  000000000117300000000012210000000001173000000000120000000000012210000000001212000000000122109365000000000006731400000000008079679100000000000000009999123100000010000000000000BRAUREACNOR9105
012026022602BALM4       010BAUMER      PN           R$  000000000200600000000020870000000002006000000000205300000000020870000000001970000000000208700004000000000000000500000000000001026500000000000000009999123100000010000000000000BRBALMACNPR2060
012026022602BAZA3       010AMAZONIA    ON           R$  000000000877400000000087750000000008729000000000874600000000087290000000008729000000000878500015000000000000002000000000000017493000000000000000009999123100000010000000000000BRBAZAACNOR0180
012026022602BBAS3       010BRASIL      ON  ERJ NM   R$  000000000275200000000027730000000002698000000000273300000000027280000000002727000000000272933383000000000024720400000000067570125100000000000000009999123100000010000000000000BRBBASACNOR3335
012026022602ARML3       010ARMAC       ON      NM   R$  000000000062200000000006220000000000588000000000060100000000006020000000000602000000000060301750000000000000888000000000000534454800000000000000009999123100000010000000000000BRARMLACNOR1117
012026022602ARND3       010ARANDU      ON      NM   R$  000000000007600000000000760000000000076000000000007600000000000760000000000076000000000008300003000000000000000300000000000000022800000000000000009999123100000010000000000000BRARNDACNOR6100
012026022602ASAI3       010ASSAI       ON      NM   R$  000000000094100000000009510000000000927000000000093700000000009450000000000945000000000094713215000000000011946500000000011201864100000000000000009999123100000010000000000000BRASAIACNOR0109
012026022602CEBR5       010CEB         PNA          R$  000000000298400000000029840000000002913000000000292300000000029730000000002900000000000296800013000000000000003200000000000009353600000000000000009999123100000010000000000000BRCEBRACNPA8128
012026022602CEBR6       010CEB         PNB          R$  000000000320200000000032020000000003180000000000318700000000031910000000003172000000000319000016000000000000008900000000000028366600000000000000009999123100000010000000000000BRCEBRACNPB6128
012026022602CEDO4       010CEDRO       PN      N1   R$  000000000096500000000009650000000000965000000000096500000000009650000000000928000000000096500001000000000000000100000000000000096500000000000000009999123100000010000000000000BRCEDOACNPR5128
012026022602CEEB3       010COELBA      ON           R$  000000000477900000000047790000000004760000000000477200000000047600000000004740000000000477900002000000000000000300000000000001431800000000000000009999123100000010000000000000BRCEEBACNOR3207
012026022602CGAS5       010COMGAS      PNA          R$  000000001357100000000135710000000013272000000001344500000000132720000000013281000000001359900004000000000000000400000000000005378100000000000000009999123100000010000000000000BRCGASACNPA3165
012026022602CGRA3       010GRAZZIOTIN  ON           R$  000000000280100000000028010000000002801000000000280100000000028010000000002801000000000285000001000000000000000200000000000000560200000000000000009999123100000010000000000000BRCGRAACNOR2088
012026022602CGRA4       010GRAZZIOTIN  PN           R$  000000000274500000000027650000000002706000000000275200000000027470000000002711000000000275900029000000000000004800000000000013210500000000000000009999123100000010000000000000BRCGRAACNPR9088
012026022602BGIP4       010BANESE      PN           R$  000000000360600000000036180000000003564000000000360200000000036180000000003591000000000362000006000000000000000800000000000002882100000000000000009999123100000010000000000000BRBGIPACNPR8215
012026022602BIOM3       010BIOMM       ON      MA   R$  000000000062900000000006300000000000605000000000061900000000006300000000000625000000000063000255000000000000102900000000000063794600000000000000009999123100000010000000000000BRBIOMACNOR2113
012026022602BIED3       010BIOMA EDUC  ON      MA   R$  000000000060900000000008000000000000609000000000066800000000006100000000000544000000000065000067000000000000012400000000000008286900000000000000009999123100000010000000000000BRBIEDACNOR2101
012026022602IBOV11      010IBOVESPA    IBO/         R$  000001906170000000190617000000019061700000001906170000000190617000000000000000000000000000000024000000000000020116000000003834451572000000000000009999123100001000000000000000BRIBOVINDM18016
012026022602ITUB3       010ITAUUNIBANCOON      N1   R$  000000000445900000000044880000000004410000000000444200000000044540000000004435000000000445504119000000000000897900000000003988751000000000000000009999123100000010000000000000BRITUBACNOR4365
012026022602ITUB4       010ITAUUNIBANCOPN      N1   R$  000000000477900000000048150000000004716000000000475600000000047670000000004762000000000476931988000000000026516600000000126127699300000000000000009999123100000010000000000000BRITUBACNPR1365
012026022602MATD3       010MATER DEI   ON      NM   R$  000000000058500000000006140000000000585000000000060300000000006140000000000610000000000061400682000000000000156700000000000094630400000000000000009999123100000010000000000000BRMATDACNOR4106
012026022602MBRF3       010MARFRIG     ON      NM   R$  000000000203300000000020390000000002001000000000202200000000020240000000002024000000000202511474000000000008797800000000017797043900000000000000009999123100000010000000000000BRMBRFACNOR1100
012026022602LAND3       010TERRASANTAPAON      NM   R$  000000000088100000000008920000000000868000000000088600000000008880000000000887000000000088800136000000000000072900000000000064604100000000000000009999123100000010000000000000BRLANDACNOR9104
012026022602LAVV3       010LAVVI       ON      NM   R$  000000000186400000000018820000000001840000000000185900000000018600000000001860000000000186302200000000000000436700000000000811868700000000000000009999123100000010000000000000BRLAVVACNOR4120
012026022602LEVE3       010METAL LEVE  ON      NM   R$  000000000363700000000036960000000003634000000000367500000000036880000000003688000000000369302640000000000000417800000000001535823400000000000000009999123100000010000000000000BRLEVEACNOR2202
012026022602USIM3       010USIMINAS    ON      N1   R$  000000000068400000000006990000000000670000000000068900000000006990000000000699000000000070001043000000000000509600000000000351183000000000000000009999123100000010000000000000BRUSIMACNOR3167
012026022602USIM5       010USIMINAS    PNA     N1   R$  000000000067800000000006960000000000670000000000068300000000006910000000000691000000000069216173000000000015242900000000010414765200000000000000009999123100000010000000000000BRUSIMACNPA6172
012026022602SLCE3       010SLC AGRICOLAON      NM   R$  000000000166100000000016940000000001645000000000167000000000016620000000001660000000000166806693000000000002072500000000003463038500000000000000009999123100000010000000000000BRSLCEACNOR2128
012026022602MRVE3       010MRV         ON      NM   R$  000000000103200000000010530000000001028000000000104200000000010430000000001043000000000104510183000000000006438200000000006709312000000000000000009999123100000010000000000000BRMRVEACNOR2128
012026022602PRIO3       010PETRORIO    ON      NM   R$  000000000531000000000053570000000005234000000000528700000000052340000000005233000000000523826773000000000011572300000000061187298600000000000000009999123100000010000000000000BRPRIOACNOR1111
012026022602INEP3       010INEPAR      ON           R$  000000000012900000000001300000000000126000000000012700000000001280000000000126000000000012800045000000000000026600000000000003394900000000000000009999123100000010000000000000BRINEPACNOR1145
012026022602INEP4       010INEPAR      PN           R$  000000000011100000000001150000000000111000000000011200000000001140000000000112000000000011400018000000000000010100000000000001135600000000000000009999123100000010000000000000BRINEPACNPR8145
012026022602INTB3       010INTELBRAS   ON      NM   R$  000000000131600000000013980000000001311000000000136600000000013980000000001393000000000139911917000000000004511200000000006166341500000000000000009999123100000010000000000000BRINTBACNOR9115
012026022602WDCN3       010WDC NETWORKSON      NM   R$  000000000025700000000002630000000000253000000000025600000000002630000000000252000000000026500033000000000000018400000000000004720400000000000000009999123100000010000000000000BRWDCNACNOR2100
012026022602WEGE3       010WEG         ON      NM   R$  000000000499000000000049990000000004809000000000491100000000049380000000004936000000000493832743000000000009902400000000048637064600000000000000009999123100000010000000000000BRWEGEACNOR0234
012026022602VLID3       010VALID       ON      NM   R$  000000000220200000000022510000000002202000000000222500000000022200000000002219000000000223501184000000000000151500000000000337141600000000000000009999123100000010000000000000BRVLIDACNOR5148
012026022602IRBR3       010IRBBRASIL REON      NM   R$  000000000637200000000064230000000006248000000000632100000000063220000000006319000000000632303189000000000000515600000000003259138900000000000000009999123100000010000000000000BRIRBRACNOR4113
012026022602JSLG3       010JSL         ON      NM   R$  000000000079800000000008200000000000788000000000080500000000008140000000000812000000000081402941000000000001507300000000001214295100000000000000009999123100000010000000000000BRJSLGACNOR2123
012026022602VSTE3       010VESTE       ON      NM   R$  000000000039100000000003920000000000375000000000038100000000003810000000000377000000000038400052000000000000020800000000000007925900000000000000009999123100000010000000000000BRVSTEACNOR5104
012026022602VTRU3       010VITRUEDUCA  ON      NM   R$  000000000151400000000015410000000001490000000000150700000000015100000000001495000000000151001941000000000000344300000000000518883300000000000000009999123100000010000000000000BRVTRUACNOR3101
012026022602VULC3       010VULCABRAS   ON      NM   R$  000000000192500000000019700000000001917000000000195400000000019530000000001952000000000195504817000000000001138000000000002224108000000000000000009999123100000010000000000000BRVULCACNOR2181
012026022602VVEO3       010VIVEO       ON      NM   R$  000000000016800000000001740000000000158000000000016600000000001620000000000161000000000016301193000000000001796900000000000298485100000000000000009999123100000010000000000000BRVVEOACNOR0104
012026022602TASA3       010TAURUS ARMASON      N2   R$  000000000057200000000005970000000000566000000000058100000000005970000000000591000000000059800146000000000000023700000000000013774300000000000000009999123100000010000000000000BRTASAACNOR7106
012026022602KEPL3       010KEPLER WEBERON      NM   R$  000000000097300000000009810000000000954000000000096900000000009720000000000968000000000097305188000000000002621600000000002541383700000000000000009999123100000010000000000000BRKEPLACNOR1069
012026022602KLBN11      010KLABIN S/A  UNT     N2   R$  000000000206700000000020990000000002060000000000208000000000020810000000002078000000000208211456000000000005370100000000011174753100000000000000009999123100000010000000000000BRKLBNCDAM18151
012026022602KLBN3       010KLABIN S/A  ON      N2   R$  000000000041300000000004210000000000412000000000041600000000004150000000000415000000000041601694000000000000651400000000000271253300000000000000009999123100000010000000000000BRKLBNACNOR2179
012026022602KLBN4       010KLABIN S/A  PN      N2   R$  000000000041000000000004180000000000409000000000041400000000004120000000000412000000000041402959000000000003107400000000001286773000000000000000009999123100000010000000000000BRKLBNACNPR9179
012026022602MILS3       010MILLS       ON      NM   R$  000000000152900000000015390000000001501000000000152000000000015220000000001521000000000153002679000000000000574400000000000873612300000000000000009999123100000010000000000000BRMILSACNOR2132
012026022602MLAS3       010MULTILASER  ON      NM   R$  000000000013500000000001360000000000134000000000013400000000001360000000000135000000000013600329000000000000411000000000000055462800000000000000009999123100000010000000000000BRMLASACNOR9102
012026022602TASA4       010TAURUS ARMASPN      N2   R$  000000000057500000000006050000000000572000000000059400000000006050000000000602000000000060501159000000000000554000000000000329437000000000000000009999123100000010000000000000BRTASAACNPR4106
012026022602TCSA3       010TECNISA     ON      NM   R$  000000000017300000000001800000000000158000000000016600000000001580000000000158000000000015900445000000000000500700000000000083139700000000000000009999123100000010000000000000BRTCSAACNOR3112
012026022602TECN3       010TECHNOS     ON      NM   R$  000000000086400000000008680000000000850000000000085500000000008520000000000852000000000085400169000000000000038900000000000033272300000000000000009999123100000010000000000000BRTECNACNOR6111
012026022602TELB3       010TELEBRAS    ON           R$  000000000145500000000015500000000001380000000000144000000000014240000000001401000000000144000057000000000000006800000000000009795800000000000000009999123100000010000000000000BRTELBACNOR2142
012026022602TELB4       010TELEBRAS    PN           R$  000000000083500000000008800000000000820000000000085700000000008500000000000850000000000086500038000000000000008800000000000007543000000000000000009999123100000010000000000000BRTELBACNPR9142
012026022602TEND3       010TENDA       ON      NM   R$  000000000303200000000030860000000002977000000000303900000000030670000000003066000000000307009609000000000001832000000000005567945400000000000000009999123100000010000000000000BRTENDACNOR4114
012026022602TFCO4       010TRACK FIELD PN      N2   R$  000000000176200000000017940000000001726000000000176700000000017860000000001773000000000178703130000000000000715500000000001264479500000000000000009999123100000010000000000000BRTFCOACNPR8121
012026022602TGMA3       010TEGMA       ON      NM   R$  000000000396400000000040200000000003959000000000397400000000039690000000003961000000000396902832000000000000409900000000001629204000000000000000009999123100000010000000000000BRTGMAACNOR7150
012026022602MNDL3       010MUNDIAL     ON           R$  000000000184900000000018500000000001720000000000178600000000017210000000001720000000000179000016000000000000005200000000000009288200000000000000009999123100000010000000000000BRMNDLACNOR4109
012026022602MNPR3       010MINUPAR     ON           R$  000000000043500000000004350000000000416000000000042400000000004300000000000422000000000043000040000000000000011700000000000004962800000000000000009999123100000010000000000000BRMNPRACNOR5123
012026022602MOTV3       010MOTIVA SA   ON      NM   R$  000000000167800000000016990000000001667000000000168000000000016830000000001682000000000168918877000000000017705700000000029747753300000000000000009999123100000010000000000000BRMOTVACNOR7102
012026022602MOVI3       010MOVIDA      ON      NM   R$  000000000141500000000014780000000001407000000000145600000000014550000000001452000000000145511383000000000004524100000000006591407600000000000000009999123100000010000000000000BRMOVIACNOR0126
012026022602POSI3       010POSITIVO TECON      NM   R$  000000000042000000000004240000000000411000000000042000000000004110000000000411000000000041601683000000000001112600000000000467349000000000000000009999123100000010000000000000BRPOSIACNOR9118
012026022602RANI3       010IRANI       ON      NM   R$  000000000096100000000009860000000000959000000000097100000000009700000000000964000000000097003255000000000001081300000000001050156300000000000000009999123100000010000000000000BRRANIACNOR5079
012026022602RAPT3       010RANDON PART ON      N1   R$  000000000067400000000006850000000000661000000000067100000000006720000000000668000000000067300035000000000000006800000000000004564800000000000000009999123100000010000000000000BRRAPTACNOR7166
012026022602RAPT4       010RANDON PART PN      N1   R$  000000000067900000000006910000000000673000000000068100000000006800000000000679000000000068006599000000000003136700000000002136977500000000000000009999123100000010000000000000BRRAPTACNPR4166
012026022602AVLL3       010ALPHAVILLE  ON      NM   R$  000000000008100000000000810000000000079000000000007900000000000790000000000078000000000008000044000000000000045100000000000003575400000000000000009999123100000010000000000000BRAVLLACNOR5103
012026022602AXIA3       010AXIA ENERGIAON      N1   R$  000000000622000000000063140000000006200000000000628200000000062920000000006280000000000629334466000000000010782000000000067742552700000000000000009999123100000010000000000000BRAXIAACNOR0102
012026022602AXIA5       010AXIA ENERGIAPNA     N1   R$  000000000646300000000064630000000006463000000000646300000000064630000000005088000000000790000001000000000000000100000000000000646300000000000000009999123100000010000000000000BRAXIAACNPA3103
012026022602AXIA6       010AXIA ENERGIAPNB     N1   R$  000000000677200000000068820000000006772000000000684900000000068480000000006825000000000684907370000000000001582300000000010838237600000000000000009999123100000010000000000000BRAXIAACNPB1103
012026022602AXIA7       010AXIA ENERGIAPNC     N1   R$  000000000601300000000061010000000005997000000000608000000000061010000000006056000000000610206678000000000001456500000000008856770700000000000000009999123100000010000000000000BRAXIAACNPC9100
012026022602TIMS3       010TIM         ON      NM   R$  000000000280500000000028440000000002797000000000281700000000028150000000002807000000000281712837000000000005170400000000014568554500000000000000009999123100000010000000000000BRTIMSACNOR5129
012026022602TKNO3       010TEKNO       ON           R$  000000002120000000000212000000000021200000000002120000000000212000000000020800000000002150000001000000000000000100000000000002120000000000000000009999123100000010000000000000BRTKNOACNOR8075
012026022602VALE3       010VALE        ON  ATZ NM   R$  000000000889400000000089380000000008704000000000884300000000089210000000008921000000000892547107000000000024503100000000216698651200000000000000009999123100000010000000000000BRVALEACNOR0219
012026022602VIVA3       010VIVARA S.A. ON      NM   R$  000000000320200000000032660000000003181000000000323700000000032350000000003235000000000323614267000000000003286600000000010641478300000000000000009999123100000010000000000000BRVIVAACNOR0109
012026022602VIVR3       010VIVER       ON  ES  NM   R$  000000000005500000000000590000000000049000000000005300000000000490000000000049000000000005100357000000000000980600000000000052173200000000000000009999123100000010000000000000BRVIVRACNOR4126
012026022602VIVT3       010TELEF BRASILON  EJ       R$  000000000424300000000042890000000004207000000000425900000000042820000000004270000000000428218020000000000004042500000000017218426700000000000000009999123100000010000000000000BRVIVTACNOR0200
012026022602RCSL3       010RECRUSUL    ON           R$  000000000029000000000002910000000000283000000000028500000000002830000000000283000000000028600129000000000000094400000000000026943400000000000000009999123100000010000000000000BRRCSLACNOR4134
012026022602RCSL4       010RECRUSUL    PN           R$  000000000061200000000006180000000000542000000000057300000000005840000000000583000000000058404736000000000002970900000000001704571300000000000000009999123100000010000000000000BRRCSLACNPR1134
012026022602RDOR3       010REDE D OR   ON      NM   R$  000000000410200000000042120000000004005000000000413700000000041550000000004152000000000415866969000000000027422200000000113456394700000000000000009999123100000010000000000000BRRDORACNOR8119
012026022602SCAR3       010SAO CARLOS  ON      NM   R$  000000000149800000000015000000000001471000000000148800000000014980000000001486000000000149800157000000000000026000000000000038713200000000000000009999123100000010000000000000BRSCARACNOR7133
012026022602SEER3       010SER EDUCA   ON      NM   R$  000000000126800000000012860000000001228000000000126900000000012690000000001265000000000126906133000000000001144000000000001451828600000000000000009999123100000010000000000000BRSEERACNOR5120
012026022602SEQL3       010SEQUOIA LOG ON      NM   R$  000000000003600000000000370000000000034000000000003500000000000350000000000035000000000003601039000000000001400500000000000049298900000000000000009999123100000010000000000000BRSEQLACNOR2108
012026022602SHOW3       010TIME FOR FUNON      NM   R$  000000000045000000000004770000000000428000000000044800000000004570000000000457000000000046600550000000000000139700000000000062613500000000000000009999123100000010000000000000BRSHOWACNOR7106
012026022602SHUL4       010SCHULZ      PN           R$  000000000056200000000005740000000000562000000000056900000000005730000000000573000000000057401224000000000000283000000000000161099300000000000000009999123100000010000000000000BRSHULACNPR4163
012026022602SIMH3       010SIMPAR      ON  EG  NM   R$  000000000130900000000013340000000001281000000000130000000000013050000000001295000000000130508973000000000003358000000000004367405600000000000000009999123100000010000000000000BRSIMHACNOR0110
012026022602TOKY3       010GRUPO TOKY  ON      NM   R$  000000000005300000000000620000000000053000000000005700000000000570000000000057000000000005800246000000000000491000000000000028351100000000000000009999123100000010000000000000BRTOKYACNOR5101
012026022602TOTS3       010TOTVS       ON      NM   R$  000000000378800000000038630000000003754000000000381100000000038160000000003816000000000381820571000000000007460700000000028437337700000000000000009999123100000010000000000000BRTOTSACNOR8150
012026022602TPIS3       010TRIUNFO PARTON      NM   R$  000000000065900000000006690000000000641000000000065400000000006670000000000656000000000066700150000000000000040300000000000026359600000000000000009999123100000010000000000000BRTPISACNOR8120
012026022602TRAD3       010TC          ON      NM   R$  000000000025000000000002540000000000245000000000024700000000002490000000000245000000000024900171000000000000065100000000000016142200000000000000009999123100000010000000000000BRTRADACNOR3102
012026022602TRIS3       010TRISUL      ON      NM   R$  000000000074700000000007620000000000743000000000074800000000007500000000000745000000000075000559000000000000166600000000000124732600000000000000009999123100000010000000000000BRTRISACNOR4122
012026022602ABCB4       010ABC BRASIL  PN      N2   R$  000000000276200000000027930000000002745000000000277300000000027930000000002778000000000279402828000000000000529100000000001467397700000000000000009999123100000010000000000000BRABCBACNPR4150
012026022602ABEV3       010AMBEV S/A   ON           R$  000000000164200000000016600000000001636000000000164200000000016410000000001639000000000164518841000000000018040900000000029633989200000000000000009999123100000010000000000000BRABEVACNOR1134
012026022602BRSR3       010BANRISUL    ON      N1   R$  000000000194900000000019720000000001948000000000196100000000019670000000001959000000000197100035000000000000004000000000000007844100000000000000009999123100000010000000000000BRBRSRACNOR3197
012026022602BRSR5       010BANRISUL    PNA     N1   R$  000000000189000000000018900000000001890000000000189000000000018900000000001879000000000199400002000000000000000200000000000000378000000000000000009999123100000010000000000000BRBRSRACNPA6201
012026022602CSED3       010CRUZEIRO EDUON      NM   R$  000000000068000000000007010000000000679000000000068600000000006820000000000679000000000068201091000000000000323400000000000222098100000000000000009999123100000010000000000000BRCSEDACNOR9107
012026022602CSMG3       010COPASA      ON      NM   R$  000000000575000000000057740000000005432000000000552700000000055640000000005560000000000556722506000000000005154700000000028492833000000000000000009999123100000010000000000000BRCSMGACNOR5183
012026022602EKTR4       010ELEKTRO     PN           R$  000000000390100000000040100000000003901000000000397000000000040100000000003901000000000401000003000000000000000300000000000001191100000000000000009999123100000010000000000000BREKTRACNPR7174
012026022602EMAE4       010EMAE        PN           R$  000000000471100000000047990000000004710000000000472800000000047990000000004678000000000480000012000000000000001700000000000008038100000000000000009999123100000010000000000000BREMAEACNPR1128
012026022602EMBJ3       010EMBRAER     ON      NM   R$  000000000930400000000094360000000009128000000000930200000000094360000000009433000000000943715034000000000003191600000000029690332200000000000000009999123100000010000000000000BREMBJACNOR1102
012026022602GGPS3       010GPS         ON      NM   R$  000000000190000000000019330000000001861000000000188700000000018960000000001887000000000190005182000000000001229900000000002321068200000000000000009999123100000010000000000000BRGGPSACNOR9106
012026022602TTEN3       0103TENTOS     ON      NM   R$  000000000169900000000017410000000001691000000000173000000000017290000000001729000000000173406172000000000001454500000000002516510700000000000000009999123100000010000000000000BRTTENACNOR0105
012026022602TUPY3       010TUPY        ON      NM   R$  000000000131100000000013800000000001311000000000136000000000013770000000001375000000000137705217000000000001786300000000002430297000000000000000009999123100000010000000000000BRTUPYACNOR1185
012026022602IFCM3       010INFRACOMM   ON      NM   R$  000000000006400000000000750000000000063000000000006900000000000750000000000074000000000007500537000000000000901600000000000062568300000000000000009999123100000010000000000000BRIFCMACNOR8109
012026022602IGTI11      010IGUATEMI S.AUNT ED  N1   R$  000000000294300000000030130000000002932000000000297800000000029850000000002985000000000298712121000000000002309400000000006877424600000000000000009999123100000010000000000000BRIGTICDAM16109
012026022602IGTI3       010IGUATEMI S.AON  ED  N1   R$  000000000034000000000003450000000000339000000000034100000000003450000000000343000000000034500136000000000000062700000000000021409100000000000000009999123100000010000000000000BRIGTIACNOR8109
012026022602JALL3       010JALLESMACHADON      NM   R$  000000000031000000000003140000000000305000000000030800000000003080000000000307000000000030800488000000000000705400000000000217491800000000000000009999123100000010000000000000BRJALLACNOR0106
012026022602JHSF3       010JHSF PART   ON      NM   R$  000000000101300000000010250000000001001000000000100700000000010080000000001008000000000101005256000000000002385900000000002404167000000000000000009999123100000010000000000000BRJHSFACNOR2156
012026022602PFRM3       010PROFARMA    ON      NM   R$  000000000093800000000009500000000000908000000000091900000000009160000000000910000000000091700775000000000000178500000000000164054900000000000000009999123100000010000000000000BRPFRMACNOR1122
012026022602PGMN3       010PAGUE MENOS ON      NM   R$  000000000073000000000007430000000000716000000000072200000000007200000000000718000000000072007894000000000003355900000000002425028600000000000000009999123100000010000000000000BRPGMNACNOR8106
012026022602PINE3       010PINE        ON      N2   R$  000000000132600000000013450000000001301000000000132900000000013320000000001332000000000135500021000000000000006300000000000008375600000000000000009999123100000010000000000000BRPINEACNOR1160
012026022602PINE4       010PINE        PN      N2   R$  000000000137500000000014100000000001357000000000138400000000014000000000001386000000000140001816000000000000595700000000000824936300000000000000009999123100000010000000000000BRPINEACNPR8160
012026022602PLAS3       010PLASCAR PARTON           R$  000000000045700000000004570000000000453000000000045500000000004530000000000451000000000047500003000000000000000300000000000000136600000000000000009999123100000010000000000000BRPLASACNOR2106
012026022602PLPL3       010PLANOEPLANO ON      NM   R$  000000000156500000000016090000000001561000000000158500000000015910000000001591000000000159604073000000000001153300000000001828577200000000000000009999123100000010000000000000BRPLPLACNOR5106
012026022602PNVL3       010DIMED       ON      NM   R$  000000000157800000000016570000000001577000000000162400000000016340000000001634000000000164507191000000000001912900000000003108166100000000000000009999123100000010000000000000BRPNVLACNOR9213
012026022602POMO3       010MARCOPOLO   ON      N2   R$  000000000064400000000006650000000000637000000000065100000000006540000000000653000000000065401819000000000001605200000000001046020600000000000000009999123100000010000000000000BRPOMOACNOR0105
012026022602POMO4       010MARCOPOLO   PN      N2   R$  000000000068900000000007060000000000677000000000069300000000007030000000000702000000000070334983000000000029263800000000020301938900000000000000009999123100000010000000000000BRPOMOACNPR7105
012026022602RAIZ4       010RAIZEN      PN      N2   R$  000000000006400000000000660000000000063000000000006400000000000650000000000064000000000006517260000000000033892400000000002177981200000000000000009999123100000010000000000000BRRAIZACNPR6112
012026022602SBFG3       010GRUPO SBF   ON      NM   R$  000000000129800000000013420000000001296000000000131600000000013070000000001307000000000131104889000000000001398000000000001840228600000000000000009999123100000010000000000000BRSBFGACNOR1104
012026022602SBSP3       010SABESP      ON      NM   R$  000000001577600000000158750000000015392000000001553000000000155480000000015540000000001554914203000000000002697100000000041886423100000000000000009999123100000010000000000000BRSBSPACNOR5165
012026022602VBBR3       010VIBRA       ON      NM   R$  000000000311600000000031160000000003049000000000306600000000030800000000003077000000000308119968000000000007687300000000023576225000000000000000009999123100000010000000000000BRVBBRACNOR1114
012026022602VITT3       010VITTIA      ON      NM   R$  000000000040200000000004200000000000402000000000041200000000004200000000000410000000000042000759000000000000173300000000000071478300000000000000009999123100000010000000000000BRVITTACNOR4113
012026022602YDUQ3       010YDUQS PART  ON      NM   R$  000000000139400000000014010000000001351000000000136200000000013560000000001355000000000135709037000000000002520000000000003433578800000000000000009999123100000010000000000000BRYDUQACNOR3108
012026022602WEST3       010WESTWING    ON      NM   R$  000000000058200000000006200000000000582000000000061300000000006100000000000600000000000061500020000000000000011800000000000007233700000000000000009999123100000010000000000000BRWESTACNOR3101
012026022602WHRL3       010WHIRLPOOL   ON           R$  000000000044100000000004440000000000430000000000043400000000004330000000000433000000000043800048000000000000016500000000000007176200000000000000009999123100000010000000000000BRWHRLACNOR5135
012026022602WHRL4       010WHIRLPOOL   PN           R$  000000000047900000000004800000000000471000000000047700000000004800000000000471000000000048000030000000000000007900000000000003769700000000000000009999123100000010000000000000BRWHRLACNPR2135
012026022602WIZC3       010WIZ CO      ON      NM   R$  000000000091100000000009400000000000911000000000093000000000009350000000000935000000000093602328000000000000509600000000000473935400000000000000009999123100000010000000000000BRWIZCACNOR5104
012026022602WLMM4       010WLM IND COM PN           R$  000000000236900000000024000000000002369000000000239200000000024000000000002320000000000242800004000000000000000400000000000000956900000000000000009999123100000010000000000000BRWLMMACNPR3125
012026022602PATI3       010PANATLANTICAON           R$  000000000330600000000033060000000003300000000000330100000000033050000000003230000000000357300003000000000000001200000000000003961600000000000000009999123100000010000000000000BRPATIACNOR6069
012026022602DASA3       010DASA        ON      NM   R$  000000000041400000000004170000000000401000000000040800000000004070000000000406000000000040702051000000000001154500000000000471120600000000000000009999123100000010000000000000BRDASAACNOR1123
012026022602DESK3       010DESKTOP     ON      NM   R$  000000000133500000000013610000000001314000000000134500000000013580000000001354000000000136003057000000000000668000000000000898460800000000000000009999123100000010000000000000BRDESKACNOR2106
012026022602DEXP3       010DEXXOS PAR  ON      N1   R$  000000000075200000000007750000000000752000000000076500000000007590000000000759000000000076300992000000000000183100000000000140126400000000000000009999123100000010000000000000BRDEXPACNOR1109
012026022602DEXP4       010DEXXOS PAR  PN      N1   R$  000000000075400000000007710000000000751000000000075400000000007710000000000756000000000077200024000000000000010700000000000008070200000000000000009999123100000010000000000000BRDEXPACNPR8109
012026022602DIRR3       010DIRECIONAL  ON      NM   R$  000000000162200000000016600000000001615000000000163300000000016600000000001655000000000166113254000000000006119000000000009994647600000000000000009999123100000010000000000000BRDIRRACNOR0123
012026022602DMVF3       010D1000VFARMA ON      NM   R$  000000000073600000000007490000000000711000000000073300000000007490000000000726000000000074900312000000000000059200000000000043407200000000000000009999123100000010000000000000BRDMVFACNOR9100
012026022602DOHL4       010DOHLER      PN           R$  000000000038900000000003890000000000389000000000038900000000003890000000000377000000000038900001000000000000000100000000000000038900000000000000009999123100000010000000000000BRDOHLACNPR9067
012026022602DOTZ3       010DOTZ SA     ON      NM   R$  000000000030700000000003140000000000295000000000030400000000003050000000000302000000000030300035000000000000008600000000000002616600000000000000009999123100000010000000000000BRDOTZACNOR7101
012026022602DXCO3       010DEXCO       ON      NM   R$  000000000056200000000005680000000000554000000000056000000000005610000000000561000000000056304203000000000002225100000000001247052600000000000000009999123100000010000000000000BRDXCOACNOR8108
012026022602B3SA3       010B3          ON      NM   R$  000000000181500000000018360000000001784000000000180100000000017950000000001795000000000180341504000000000024570400000000044251979300000000000000009999123100000010000000000000BRB3SAACNOR6140
012026022602BBDC3       010BRADESCO    ON      N1   R$  000000000183800000000018570000000001800000000000182000000000018250000000001821000000000182513038000000000006466800000000011772797600000000000000009999123100000010000000000000BRBBDCACNOR1797
012026022602BBDC4       010BRADESCO    PN      N1   R$  000000000211900000000021380000000002070000000000209200000000020980000000002097000000000210049605000000000040191400000000084082329200000000000000009999123100000010000000000000BRBBDCACNPR8797
012026022602BHIA3       010CASAS BAHIA ON      NM   R$  000000000028900000000003010000000000288000000000029300000000003010000000000300000000000030101992000000000003734400000000001096143300000000000000009999123100000010000000000000BRBHIAACNOR1104
012026022602SANB11      010SANTANDER BRUNT          R$  000000000345700000000034940000000003409000000000343500000000034430000000003440000000000344411125000000000003775900000000012972017300000000000000009999123100000010000000000000BRSANBCDAM13172
012026022602SANB3       010SANTANDER BRON           R$  000000000174000000000017480000000001683000000000170300000000016900000000001689000000000169000495000000000000123500000000000210379900000000000000009999123100000010000000000000BRSANBACNOR8179
012026022602SANB4       010SANTANDER BRPN           R$  000000000173700000000017420000000001707000000000172400000000017390000000001717000000000174000407000000000000108700000000000187470600000000000000009999123100000010000000000000BRSANBACNPR5179
012026022602VAMO3       010VAMOS       ON      NM   R$  000000000047600000000004810000000000456000000000046800000000004560000000000456000000000045909417000000000014284800000000006686099800000000000000009999123100000010000000000000BRVAMOACNOR7109
012026022608LIGT3       010LIGHT S/A   ON      NM   R$  000000000050100000000005080000000000464000000000047900000000004800000000000480000000000048502828000000000002336200000000001120401500000000000000009999123100000010000000000000BRLIGTACNOR2125
012026022608BDLL3       010BARDELLA    ON           R$  000000000070500000000007710000000000705000000000075900000000007710000000000700000000000084000006000000000000000600000000000000455900000000000000009999123100000010000000000000BRBDLLACNOR1149
012026022608AMBP3       010AMBIPAR     ON      NM   R$  000000000002500000000000260000000000023000000000002400000000000250000000000024000000000002501485000000000018232800000000000450372700000000000000009999123100000010000000000000BRAMBPACNOR6105
012026022608AMER3       010AMERICANAS  ON      NM   R$  000000000056000000000005680000000000555000000000056100000000005620000000000562000000000056601251000000000001299900000000000729841400000000000000009999123100000010000000000000BRAMERACNOR6103
012026022608CTAX3       010CONTAX      ON           R$  000000000008300000000000830000000000081000000000008200000000000810000000000081000000000008300002000000000000000400000000000000032800000000000000009999123100000010000000000000BRCTAXACNOR3119
012026022608CTSA3       010SANTANENSE  ON           R$  000000000024900000000002490000000000249000000000024900000000002490000000000222000000000025500001000000000000000100000000000000024900000000000000009999123100000010000000000000BRCTSAACNOR3063
012026022608NEXP3       010NEXPE       ON           R$  000000000028000000000002810000000000280000000000028000000000002810000000000280000000000028100007000000000000001400000000000000392300000000000000009999123100000010000000000000BRNEXPACNOR0101
012026022608HOOT4       010HOTEIS OTHONPN           R$  000000000070000000000007110000000000698000000000069800000000007110000000000699000000000071100003000000000000008500000000000005936300000000000000009999123100000010000000000000BRHOOTACNPR9015
012026022608AGXY3       010AGROGALAXY  ON      NM   R$  000000000023300000000002450000000000225000000000023500000000002250000000000225000000000023200287000000000000053000000000000012460500000000000000009999123100000010000000000000BRAGXYACNOR4104
012026022608BOBR4       010BOMBRIL     PN           R$  000000000012400000000001240000000000124000000000012400000000001240000000000124000000000012900004000000000000019900000000000002467600000000000000009999123100000010000000000000BRBOBRACNPR3128
012026022608OIBR3       010OI          ON      N1   R$  000000000001800000000000180000000000018000000000001800000000000180000000000018000000000001900197000000000001928900000000000034720200000000000000009999123100000010000000000000BROIBRACNOR1112
012026022608OIBR4       010OI          PN      N1   R$  000000000014600000000001460000000000146000000000014600000000001460000000000146000000000016000007000000000000002100000000000000306600000000000000009999123100000010000000000000BROIBRACNPR8111
012026022608OSXB3       010OSX BRASIL  ON      NM   R$  000000000018000000000001800000000000180000000000018000000000001800000000000174000000000018000003000000000000000400000000000000072000000000000000009999123100000010000000000000BROSXBACNOR8109
012026022608RPMG3       010PET MANGUINHON           R$  000000000022300000000002310000000000222000000000023000000000002260000000000222000000000022600012000000000000010600000000000002441500000000000000009999123100000010000000000000BRRPMGACNOR9194
012026022608JFEN3       010JOAO FORTES ON           R$  000000000009500000000000990000000000095000000000009500000000000950000000000095000000000009600024000000000000024500000000000002348700000000000000009999123100000010000000000000BRJFENACNOR0061
012026022608PMAM3       010PARANAPANEMAON  ES  NM   R$  000000000006700000000000690000000000067000000000006700000000000670000000000067000000000006800364000000000001246000000000000083756100000000000000009999123100000010000000000000BRPMAMACNOR3046
012026022610HYPE1       010HYPERA      DIR ORD NM   R$  000000000031000000000003200000000000257000000000026700000000002650000000000264000000000026700306000000000000166400000000000044488700000000000000009999123100000010000000000000BRHYPED02OR3149
012026022610BMEB9       010MERCANTIL   ON  REC N1   R$  000000000700000000000070000000000006801000000000689500000000069000000000006900000000000695000008000000000000003300000000000022755500000000000000009999123100000010000000000000BRBMEBR04OR7209
012026022610AZUL12      010AZUL        DIR     N2   R$  000000001200000000000139000000000012000000000001280000000000120000000000012000000000001330000067000000000297000000000000000003818949000000000000009999123110000000000000000000BRAZULD02M17101
012026022610AZUL14      010AZUL        DIR     N2   R$  000000000080800000000008080000000000808000000000080000000000008080000000000808000000000161600006000000000018000000000000000000014544000000000000009999123110000000000000000000BRAZULD03M16101
012026022610AZUL16      010AZUL        DIR     N2   R$  000000001210000000000134000000000012000000000001240000000000120000000000012000000000001300000043000000000129000000000000000001602580000000000000009999123110000000000000000000BRAZULD04M15101
012026022610VIVR13      010VIVER       DIR     NM   R$  000000000000100000000000010000000000001000000000000100000000000010000000000000000000000000100033000000000000066700000000000000066700000000000000009999123100000010000000000000BRVIVRD03M15125
012026022610ABCB10      010ABC BRASIL  PN  REC N2   R$  000000000276500000000027760000000002765000000000276900000000027760000000002000000000000283000003000000000000000300000000000000830700000000000000009999123100000010000000000000BRABCBR20PR9149
012026022610PMAM1       010PARANAPANEMADIR ORD NM   R$  000000000000100000000000010000000000001000000000000100000000000010000000000000000000000000100136000000000001145800000000000001145800000000000000009999123100000010000000000000BRPMAMD10OR9045
012026022612PEMA11      010FII PERFORMACI           R$  000000000449800000000044980000000004008000000000433400000000040080000000003010000000000570900004000000000000000006000000000000026008000000000000009999123100000010000000000000BRPEMACTF003155
012026022612PVBI11      010FII PVBI VBICI           R$  000000000775500000000077990000000007722000000000775400000000077550000000007742000000000775511397000000000000086755000000000672752845000000000000009999123100000010000000000000BRPVBICTF003172
012026022612SMRE11      010FII SMRE    CI           R$  000000000685600000000069300000000006840000000000687200000000068400000000006840000000000693000032000000000000000342000000000002350269000000000000009999123100000010000000000000BRSMRECTF001123
012026022612EMET11      010FII EMET    CI           R$  000000000095900000000009860000000000959000000000096700000000009590000000000958000000000096500013000000000000000032000000000000030975000000000000009999123100000010000000000000BREMETCTF007108
012026022612IRIM11      010FII IRIM    CI           R$  000000000637200000000065150000000006366000000000642600000000065130000000006500000000000651306046000000000000093084000000000598176738000000000000009999123100000010000000000000BRIRIMCTF003156
012026022612ITIP11      010FII INTER IPCI           R$  000000000663000000000066620000000006624000000000663700000000066240000000006623000000000666100045000000000000000344000000000002283261000000000000009999123100000010000000000000BRITIPCTF002149
012026022612ITIT11      010FII INTER ITCI           R$  000000000738200000000073870000000007343000000000737400000000073640000000007346000000000738700049000000000000000603000000000004446606000000000000009999123100000010000000000000BRITITCTF004149
012026022612ITRI11      010FII ITRI    CI           R$  000000000848700000000086140000000008487000000000855600000000085550000000008510000000000855503859000000000000018841000000000161210166000000000000009999123100000010000000000000BRITRICTF008122
012026022612LIFE11      010FII LIFE    CI           R$  000000000088700000000008870000000000879000000000088100000000008830000000000881000000000088301271000000000000084068000000000074106236000000000000009999123100000010000000000000BRLIFECTF017152
012026022612LMAI11      010LABINAFII   CI           R$  000000000370000000000037000000000003700000000000370000000000037000000000003666000000000373000012000000000000002306000000000008532200000000000000009999123100000010000000000000BRLMAICTF003101
012026022612LRED11      010FII LRED    CI           R$  000000000123400000000012340000000001234000000000123400000000012340000000000000000000000000000001000000000000000001000000000000001234000000000000009999123100000010000000000000BRLREDCTF005101
012026022612MXRF11      010FII MAXI RENCI           R$  000000000098500000000009900000000000982000000000098600000000009900000000000989000000000099033395000000000001519829000000001498665867000000000000009999123100000010000000000000BRMXRFCTF008274
012026022612RECD11      010FII RECD    CI           R$  000000000071500000000007160000000000715000000000071500000000007160000000000715000000000071600010000000000000000176000000000000126011000000000000009999123100000010000000000000BRRECDCTF004118
012026022612RECM11      010FII RECM    CI           R$  000000000085700000000008600000000000855000000000085500000000008550000000000854000000000085500016000000000000003405000000000002911511000000000000009999123100000010000000000000BRRECMCTF005116
012026022612RECR11      010FII REC RECECI           R$  000000000809400000000080940000000008040000000000806300000000080940000000008074000000000809405689000000000000044342000000000357557450000000000000009999123100000010000000000000BRRECRCTF004172
012026022612RECT11      010FII REC RENDCI           R$  000000000394500000000039650000000003940000000000394800000000039490000000003946000000000394900657000000000000017020000000000067196178000000000000009999123100000010000000000000BRRECTCTF000188
012026022612BSLT11      010FII BSLT    CI           R$  000000000863100000000086700000000008520000000000862300000000086700000000008520000000000867000351000000000000000507000000000004372027000000000000009999123100000010000000000000BRBSLTCTF005100
012026022612PATL11      010FII PATL VBICI           R$  000000000666800000000066950000000006668000000000668800000000066900000000006689000000000669000792000000000000008712000000000058273103000000000000009999123100000010000000000000BRPATLCTF003166
012026022612PSEC11      010FII PSEC PAXCI           R$  000000000630000000000063220000000006291000000000630600000000063150000000006301000000000631506490000000000000037619000000000237239593000000000000009999123100000010000000000000BRPSECCTF006104
012026022612RENV11      010FII RENV    CI           R$  000000000074700000000007470000000000712000000000071500000000007130000000000712000000000071300040000000000000000979000000000000700340000000000000009999123100000010000000000000BRRENVCTF003112
012026022612SPTW11      010FII SPTW PAXCI           R$  000000000410000000000041380000000004086000000000411000000000041270000000004095000000000412700298000000000000002672000000000010982341000000000000009999123100000010000000000000BRSPTWCTF002255
012026022612SPXS11      010FII SPX SYN CI           R$  000000000086500000000008850000000000863000000000086900000000008840000000000877000000000088403767000000000000071349000000000062071687000000000000009999123100000010000000000000BRSPXSCTF002144
012026022612BCIA11      010FII BCIA    CI           R$  000000000965000000000098020000000009640000000000969900000000096840000000009632000000000968400368000000000000006045000000000058632388000000000000009999123100000010000000000000BRBCIACTF005230
012026022612BCRI11      010FII BEES CRICI           R$  000000000676000000000068270000000006748000000000680100000000068110000000006804000000000681101152000000000000009328000000000063441888000000000000009999123100000010000000000000BRBCRICTF009235
012026022612IBBP11      010FII IBBP    CI           R$  000000000083900000000008390000000000785000000000079700000000008100000000000785000000000081000101000000000000006968000000000005555309000000000000009999123100000010000000000000BRIBBPCTF005115
012026022612IBCR11      010FII BREI    CI           R$  000000000521800000000052180000000005156000000000518800000000052180000000005157000000000521800099000000000000001623000000000008420283000000000000009999123100000010000000000000BRIBCRCTF009157
012026022612GAME11      010FII GUARD MUCI           R$  000000000092900000000009360000000000900000000000091000000000009230000000000905000000000092300466000000000000026079000000000023756665000000000000009999123100000010000000000000BRGAMECTF002152
012026022612GARE11      010FII GUARDIANCI           R$  000000000085600000000008570000000000853000000000085400000000008570000000000856000000000085739871000000000002377703000000002032436203000000000000009999123100000010000000000000BRGARECTF001126
012026022612GCRI11      010FII GLPG CRICI  ER       R$  000000000676000000000067600000000006640000000000667000000000066440000000006644000000000667900246000000000000006631000000000044234471000000000000009999123100000010000000000000BRGCRICTF008164
012026022612FPAB11      010FII A BRANCACI           R$  000000002095000000000209500000000020950000000002095000000000209500000000020950000000002100000001000000000000000004000000000000083800000000000000009999123100000010000000000000BRFPABCTF011334
012026022612FVPQ11      010FII V PARQUECI           R$  000000000686500000000068870000000006631000000000670600000000066830000000006683000000000670000095000000000000001233000000000008268809000000000000009999123100000010000000000000BRFVPQCTF015277
012026022612FYTO11      010FII FYTO    CI           R$  000000000087500000000008780000000000872000000000087400000000008780000000000874000000000087800210000000000000008979000000000007848079000000000000009999123100000010000000000000BRFYTOCTF008111
012026022612GFDL11      010FII GFDL    CI           R$  000000001114600000000111460000000011146000000001114600000000111460000000000000000000000000000001000000000000000069000000000000769074000000000000009999123100000010000000000000BRGFDLCTF005101
012026022612ANCR11      010FII ANCAR ICCI           R$  000000004899900000000489990000000044800000000004861700000000448000000000044800000000004900000004000000000000000011000000000000534790000000000000009999123100000010000000000000BRANCRCTF001164
012026022612APTO11      010FII NAVI RSDCI           R$  000000000085000000000008550000000000842000000000085000000000008440000000000844000000000085300111000000000000001892000000000001609223000000000000009999123100000010000000000000BRAPTOCTF007151
012026022612APXM11      010FII APEX MS CI  ER       R$  000000000740600000000075970000000007406000000000756800000000075970000000007422000000000759700027000000000000000190000000000001437994000000000000009999123100000010000000000000BRAPXMCTF003131
012026022612CXTL11      010FII CX TRX  CI           R$  000000003395100000000339510000000033950000000003395000000000339500000000033950000000003509800008000000000000000026000000000000882706000000000000009999123100000010000000000000BRCXTLCTF003256
012026022612CYCR11      010FII CYRELA  CI           R$  000000000090700000000009100000000000903000000000090500000000009040000000000904000000000090900514000000000000092853000000000084109956000000000000009999123100000010000000000000BRCYCRCTF004159
012026022612EURO11      010FII EUROPAR CI           R$  000000003250000000000326990000000032198000000003245000000000324980000000031641000000003250000034000000000000000710000000000023039895000000000000009999123100000010000000000000BREUROCTF011380
012026022612CTXT11      010FII C TEXTILCI           R$  000000000058300000000005950000000000580000000000058400000000005950000000000544000000000059500006000000000000000009000000000000005256000000000000009999123100000010000000000000BRCTXTCTF014208
012026022612STYI11      010FII STYI    CI           R$  000000013805100000001499870000000138051000000014538500000001449990000000139800000000014500000010000000000000000080000000000011630818000000000000009999123100000010000000000000BRSTYICTF003100
012026022612EQIR11      010FII EQI RECECI  ER       R$  000000000085500000000008600000000000855000000000085700000000008590000000000857000000000085900122000000000000003675000000000003150142000000000000009999123100000010000000000000BREQIRCTF003153
012026022612HBCR11      010FII HBC REN CI  ER       R$  000000001379000000000137900000000013790000000001379000000000137900000000009834000000001379000001000000000000000003000000000000041370000000000000009999123100000010000000000000BRHBCRCTF001162
012026022612HCHG11      010FII HECT CRICI           R$  000000000840000000000084000000000008200000000000825300000000082000000000008020000000000839500004000000000000000041000000000000338400000000000000009999123100000010000000000000BRHCHGCTF001156
012026022612HCRI11      010FII CRIANCA CI           R$  000000002979800000000299000000000029632000000002980600000000296710000000029669000000002990000019000000000000000095000000000002831652000000000000009999123100000010000000000000BRHCRICTF006349
012026022612HCTR11      010FII HECTARE CI           R$  000000000218900000000021890000000002165000000000217500000000021720000000002172000000000217501825000000000000023953000000000052098920000000000000009999123100000010000000000000BRHCTRCTF003189
