00COTAHIST.2026BOVESPA 20260303                                                                                                                                                                                                                      
012026030302CTKA4       010KARSTEN     PN           R$  000000000413600000000041680000000004100000000000412200000000041680000000004075000000000416900015000000000000001800000000000007419800000000000000009999123100000010000000000000BRCTKAACNPR7043
012026030302CURY3       010CURY S/A    ON      NM   R$  000000000362900000000037240000000003625000000000368000000000036650000000003663000000000366917810000000000003508200000000012911656800000000000000009999123100000010000000000000BRCURYACNOR3116
012026030302BBDC3       010BRADESCO    ON  EJ  N1   R$  000000000175500000000017700000000001710000000000174000000000017510000000001751000000000175222386000000000011019000000000019178341800000000000000009999123100000010000000000000BRBBDCACNOR1798
012026030302BBDC4       010BRADESCO    PN  EJ  N1   R$  000000000204100000000020500000000001992000000000202100000000020200000000002018000000000202159970000000000057300000000000115850097500000000000000009999123100000010000000000000BRBBDCACNPR8798
012026030302BEES3       010BANESTES    ON  EJ       R$  000000000087800000000008820000000000839000000000086400000000008650000000000863000000000086600215000000000000030600000000000026455300000000000000009999123100000010000000000000BRBEESACNOR9416
012026030302BEES4       010BANESTES    PN  EJ       R$  000000000087800000000009120000000000871000000000089400000000008970000000000881000000000089700182000000000000026300000000000023518100000000000000009999123100000010000000000000BRBEESACNPR6341
012026030302LOGG3       010LOG COM PROPON      NM   R$  000000000280200000000028020000000002710000000000275500000000027660000000002766000000000277604749000000000000700400000000001930289800000000000000009999123100000010000000000000BRLOGGACNOR7112
012026030302LOGN3       010LOG-IN      ON      NM   R$  000000000320900000000032240000000003175000000000320000000000031880000000003185000000000319800096000000000000015100000000000048320900000000000000009999123100000010000000000000BRLOGNACNOR3105
012026030302LPSB3       010LOPES BRASILON      NM   R$  000000000018000000000001880000000000178000000000018200000000001880000000000188000000000018900429000000000000261100000000000047665100000000000000009999123100000010000000000000BRLPSBACNOR0116
012026030302LREN3       010LOJAS RENNERON      NM   R$  000000000148500000000015180000000001445000000000148200000000014960000000001496000000000149832284000000000017579900000000026066997500000000000000009999123100000010000000000000BRLRENACNOR1228
012026030302MWET4       010WETZEL S/A  PN           R$  000000000114900000000011660000000001149000000000116100000000011650000000001007000000000116700005000000000000000800000000000000929000000000000000009999123100000010000000000000BRMWETACNPR3118
012026030302MYPK3       010IOCHP-MAXIONON      NM   R$  000000000101000000000010100000000000984000000000099200000000009860000000000986000000000099411064000000000002082600000000002067557300000000000000009999123100000010000000000000BRMYPKACNOR7158
012026030302BRAP3       010BRADESPAR   ON      N1   R$  000000000209900000000020990000000002020000000000204900000000020200000000002020000000000203400707000000000000128200000000000262741800000000000000009999123100000010000000000000BRBRAPACNOR5153
012026030302BIED3       010BIOMA EDUC  ON      MA   R$  000000000075500000000007700000000000755000000000076000000000007550000000000732000000000075500019000000000000004400000000000003344500000000000000009999123100000010000000000000BRBIEDACNOR2101
012026030302ENGI11      010ENERGISA    UNT     N2   R$  000000000510900000000052530000000005081000000000517400000000052320000000005216000000000523212510000000000003045800000000015761965800000000000000009999123100000010000000000000BRENGICDAM16140
012026030302ENGI3       010ENERGISA    ON      N2   R$  000000000125000000000012790000000001225000000000124400000000012780000000001250000000000128000045000000000000005800000000000007215700000000000000009999123100000010000000000000BRENGIACNOR0150
012026030302ENGI4       010ENERGISA    PN      N2   R$  000000000101500000000010150000000000965000000000097900000000009880000000000983000000000098800088000000000000023700000000000023211100000000000000009999123100000010000000000000BRENGIACNPR7146
012026030302ENJU3       010ENJOEI      ON      NM   R$  000000000011200000000001140000000000104000000000010800000000001080000000000108000000000010901764000000000001125000000000000121535900000000000000009999123100000010000000000000BRENJUACNOR9100
012026030302EPAR3       010EMBPAR S/A  ON           R$  000000000034400000000003440000000000335000000000034000000000003350000000000335000000000033900041000000000000011200000000000003810500000000000000009999123100000010000000000000BREPARACNOR9107
012026030302EQMA3B      010EQTLMARANHAOON      MB   R$  000000000339800000000033980000000003398000000000339800000000033980000000003201000000000349800001000000000000000100000000000000339800000000000000009999123100000010000000000000BREQMAACNOR8109
012026030302EQPA3       010EQTL PARA   ON           R$  000000000064900000000006490000000000636000000000064100000000006490000000000649000000000065000024000000000000005300000000000003401200000000000000009999123100000010000000000000BREQPAACNOR1112
012026030302EQTL3       010EQUATORIAL  ON      NM   R$  000000000399200000000041060000000003939000000000403300000000040490000000004048000000000405128737000000000010778000000000043468611300000000000000009999123100000010000000000000BREQTLACNOR0135
012026030302ISAE3       010ISA ENERGIA ON  EJ  N1   R$  000000000341000000000034100000000003300000000000337800000000033140000000003331000000000340500017000000000000001900000000000006418600000000000000009999123100000010000000000000BRISAEACNOR2109
012026030302ALLD3       010ALLIED      ON      NM   R$  000000000073700000000007370000000000708000000000071600000000007150000000000715000000000072002337000000000000506400000000000362799100000000000000009999123100000010000000000000BRALLDACNOR3110
012026030302ALOS3       010ALLOS       ON  ED  NM   R$  000000000318300000000031880000000003086000000000312400000000031370000000003125000000000313723087000000000007579700000000023684699100000000000000009999123100000010000000000000BRALOSACNOR5119
012026030302ABCB4       010ABC BRASIL  PN      N2   R$  000000000266100000000026610000000002576000000000262100000000026380000000002635000000000263804347000000000000730200000000001914290000000000000000009999123100000010000000000000BRABCBACNPR4150
012026030302ABEV3       010AMBEV S/A   ON           R$  000000000153500000000015580000000001515000000000154200000000015570000000001552000000000155736207000000000040085300000000061811951000000000000000009999123100000010000000000000BRABEVACNOR1134
012026030302AZEV3       010AZEVEDO     ON           R$  000000000002800000000000290000000000027000000000002700000000000280000000000027000000000002800141000000000000422900000000000011594400000000000000009999123100000010000000000000BRAZEVACNOR0123
012026030302AZEV4       010AZEVEDO     PN           R$  000000000002200000000000220000000000020000000000002100000000000210000000000021000000000002200624000000000006854400000000000144896500000000000000009999123100000010000000000000BRAZEVACNPR7123
012026030302AZTE3       010AZT ENERGIA ON           R$  000000000003300000000000330000000000029000000000003000000000000300000000000029000000000003000383000000000003426500000000000105739000000000000000009999123100000010000000000000BRAZTEACNOR4101
012026030302CAMB3       010CAMBUCI     ON           R$  000000000094600000000009490000000000923000000000093300000000009330000000000933000000000093900092000000000000028700000000000026777800000000000000009999123100000010000000000000BRCAMBACNOR4136
012026030302CAML3       010CAMIL       ON  ED  NM   R$  000000000067700000000006780000000000653000000000065900000000006540000000000654000000000065704455000000000001559700000000001029165500000000000000009999123100000010000000000000BRCAMLACNOR3135
012026030302CASH3       010MELIUZ      ON      NM   R$  000000000034700000000003480000000000335000000000034100000000003420000000000341000000000034202009000000000002021500000000000690736100000000000000009999123100000010000000000000BRCASHACNOR8107
012026030302ETER3       010ETERNIT     ON      NM   R$  000000000040000000000004010000000000394000000000039600000000003940000000000394000000000039700371000000000000111400000000000044132900000000000000009999123100000010000000000000BRETERACNOR3246
012026030302EUCA3       010EUCATEX     ON      N1   R$  000000000216400000000022000000000002164000000000216400000000021640000000002105000000000219700013000000000000005900000000000012771300000000000000009999123100000010000000000000BREUCAACNOR1159
012026030302EUCA4       010EUCATEX     PN      N1   R$  000000000213100000000021590000000002033000000000208400000000020330000000002033000000000205500211000000000000028300000000000058991600000000000000009999123100000010000000000000BREUCAACNPR8046
012026030302EVEN3       010EVEN        ON      NM   R$  000000000080700000000008120000000000750000000000077000000000007750000000000773000000000077504984000000000001297900000000000999511000000000000000009999123100000010000000000000BREVENACNOR8121
012026030302EZTC3       010EZTEC       ON      NM   R$  000000000150000000000015080000000001456000000000148400000000014970000000001491000000000149710317000000000002680800000000003978424200000000000000009999123100000010000000000000BREZTCACNOR0132
012026030302HBOR3       010HELBOR      ON      NM   R$  000000000029500000000002970000000000281000000000028800000000002940000000000291000000000029402544000000000001394300000000000402442900000000000000009999123100000010000000000000BRHBORACNOR3120
012026030302ISAE4       010ISA ENERGIA PN  EJ  N1   R$  000000000278500000000028020000000002731000000000277200000000027910000000002791000000000279212225000000000002679600000000007428540800000000000000009999123100000010000000000000BRISAEACNPR9109
012026030302ITSA3       010ITAUSA      ON  EJ  N1   R$  000000000140100000000014010000000001333000000000136200000000013580000000001357000000000136500989000000000000277400000000000377978900000000000000009999123100000010000000000000BRITSAACNOR0456
012026030302ITSA4       010ITAUSA      PN  EJ  N1   R$  000000000135100000000013700000000001325000000000135100000000013600000000001360000000000136129622000000000036863700000000049815231500000000000000009999123100000010000000000000BRITSAACNPR7456
012026030302CEBR5       010CEB         PNA          R$  000000000288000000000030100000000002862000000000297800000000030070000000002963000000000300700024000000000000014700000000000043788600000000000000009999123100000010000000000000BRCEBRACNPA8128
012026030302CEBR6       010CEB         PNB          R$  000000000311400000000031140000000002960000000000299400000000030500000000003039000000000306500045000000000000009600000000000028747400000000000000009999123100000010000000000000BRCEBRACNPB6128
012026030302CEEB3       010COELBA      ON           R$  000000000469100000000046910000000004691000000000469100000000046910000000004689000000000481300003000000000000000400000000000001876400000000000000009999123100000010000000000000BRCEEBACNOR3207
012026030302CGAS3       010COMGAS      ON           R$  000000001280600000000128060000000012806000000001280600000000128060000000012900000000001399500001000000000000000100000000000001280600000000000000009999123100000010000000000000BRCGASACNOR0168
012026030302CGAS5       010COMGAS      PNA          R$  000000001330000000000133000000000013290000000001329600000000132900000000013166000000001359000002000000000000000300000000000003989000000000000000009999123100000010000000000000BRCGASACNPA3165
012026030302CGRA3       010GRAZZIOTIN  ON           R$  000000000275100000000027930000000002750000000000275500000000027930000000002751000000000279900009000000000000001000000000000002755200000000000000009999123100000010000000000000BRCGRAACNOR2088
012026030302CGRA4       010GRAZZIOTIN  PN           R$  000000000268300000000027190000000002660000000000268800000000026980000000002690000000000270500061000000000000011900000000000031997200000000000000009999123100000010000000000000BRCGRAACNPR9088
012026030302CLSC3       010CELESC      ON      N2   R$  000000001280000000000128000000000012800000000001280000000000128000000000012600000000001340000001000000000000000100000000000001280000000000000000009999123100000010000000000000BRCLSCACNOR6159
012026030302AZUL53      010AZUL        ON  P   N2   R$  000000002230000000000236990000000021692000000002220000000000219000000000021800000000002190000994000000011868000000000000000264193893000000000000009999123110000000000000000000BRAZULA01OR8102
012026030302AZZA3       010AZZAS 2154  ON      NM   R$  000000000254400000000025670000000002453000000000250500000000025120000000002512000000000251312843000000000004000000000000010021944900000000000000009999123100000010000000000000BRAZZAACNOR9104
012026030302CLSC4       010CELESC      PN      N2   R$  000000001490100000000149990000000014710000000001480000000000147500000000014705000000001475000056000000000000006600000000000097680500000000000000009999123100000010000000000000BRCLSCACNPR3138
012026030302CMIG3       010CEMIG       ON      N1   R$  000000000153900000000015390000000001485000000000150300000000015120000000001502000000000151200542000000000000094300000000000141738700000000000000009999123100000010000000000000BRCMIGACNOR6251
012026030302CMIG4       010CEMIG       PN      N1   R$  000000000116100000000011610000000001133000000000114900000000011540000000001154000000000115533082000000000017785700000000020443032500000000000000009999123100000010000000000000BRCMIGACNPR3252
012026030302BEEF3       010MINERVA     ON      NM   R$  000000000050000000000005020000000000486000000000049300000000004860000000000485000000000048729701000000000016607200000000008195872900000000000000009999123100000010000000000000BRBEEFACNOR6120
012026030302BPAC11      010BTGP BANCO  UNT     N2   R$  000000000584700000000059000000000005591000000000573200000000057510000000005751000000000575856826000000000021363700000000122457314100000000000000009999123100000010000000000000BRBPACUNT006128
012026030302BPAC3       010BTGP BANCO  ON      N2   R$  000000000443400000000044340000000004073000000000419600000000041800000000004180000000000435000102000000000000013600000000000057067000000000000000009999123100000010000000000000BRBPACACNOR7139
012026030302BPAC5       010BTGP BANCO  PNA     N2   R$  000000000113500000000011350000000001064000000000108200000000010860000000001087000000000109400139000000000000027100000000000029341500000000000000009999123100000010000000000000BRBPACACNPA0139
012026030302LAND3       010TERRASANTAPAON      NM   R$  000000000090000000000009050000000000866000000000088100000000009050000000000881000000000090600143000000000000038500000000000033934800000000000000009999123100000010000000000000BRLANDACNOR9104
012026030302LAVV3       010LAVVI       ON      NM   R$  000000000180100000000018030000000001760000000000177900000000017760000000001769000000000177807302000000000001552200000000002762829100000000000000009999123100000010000000000000BRLAVVACNOR4120
012026030302LEVE3       010METAL LEVE  ON      NM   R$  000000000354800000000035530000000003474000000000351900000000035260000000003520000000000352604006000000000000610900000000002149860100000000000000009999123100000010000000000000BRLEVEACNOR2202
012026030302LJQQ3       010QUERO-QUERO ON      NM   R$  000000000021200000000002140000000000204000000000020800000000002050000000000205000000000020604797000000000006125900000000001274854600000000000000009999123100000010000000000000BRLJQQACNOR5105
012026030302FLRY3       010FLEURY      ON      NM   R$  000000000165200000000016710000000001630000000000164800000000016420000000001642000000000164417089000000000007387500000000012181164900000000000000009999123100000010000000000000BRFLRYACNOR5143
012026030302HBRE3       010HBR REALTY  ON      NM   R$  000000000031200000000003140000000000299000000000030200000000002990000000000299000000000030100780000000000000955400000000000288911500000000000000009999123100000010000000000000BRHBREACNOR4101
012026030302HBSA3       010HIDROVIAS   ON      NM   R$  000000000042300000000004290000000000402000000000041500000000004160000000000415000000000041808000000000000003433600000000001426063100000000000000009999123100000010000000000000BRHBSAACNOR0102
012026030302RSUL4       010RIOSULENSE  PN           R$  000000000675300000000067530000000006290000000000645300000000063130000000006301000000000640000048000000000000007900000000000050979100000000000000009999123100000010000000000000BRRSULACNPR3116
012026030302EKTR4       010ELEKTRO     PN           R$  000000000390000000000039000000000003900000000000390000000000039000000000003801000000000401000002000000000000000200000000000000780000000000000000009999123100000010000000000000BREKTRACNPR7174
012026030302EMAE4       010EMAE        PN           R$  000000000489700000000048970000000004740000000000479000000000047610000000004760000000000487500061000000000000008300000000000039762500000000000000009999123100000010000000000000BREMAEACNPR1128
012026030302EMBJ3       010EMBRAER     ON      NM   R$  000000000916800000000092500000000008980000000000912700000000091710000000009171000000000917227026000000000005812500000000053054852700000000000000009999123100000010000000000000BREMBJACNOR1102
012026030302LUPA3       010LUPATECH    ON      NM   R$  000000000012000000000001200000000000116000000000011700000000001200000000000117000000000012000074000000000000142400000000000016771800000000000000009999123100000010000000000000BRLUPAACNOR8112
012026030302LUXM4       010TREVISA     PN           R$  000000000043000000000004490000000000410000000000043100000000004130000000000405000000000041400018000000000000005300000000000002287800000000000000009999123100000010000000000000BRLUXMACNPR4053
012026030302LWSA3       010LWSA        ON      NM   R$  000000000034900000000003490000000000328000000000033900000000003420000000000342000000000034307407000000000007552100000000002563639100000000000000009999123100000010000000000000BRLWSAACNOR8106
012026030302NORD3       010NORDON MET  ON           R$  000000000040500000000004050000000000401000000000040300000000004010000000000401000000000047000002000000000000000200000000000000080600000000000000009999123100000010000000000000BRNORDACNOR7135
012026030302NUTR3       010NUTRIPLANT  ON      MA   R$  000000000023600000000002410000000000217000000000023100000000002170000000000216000000000024500030000000000000005800000000000001342600000000000000009999123100000010000000000000BRNUTRACNOR0104
012026030302OBTC3       010ORANJEBTC   ON           R$  000000000074500000000007700000000000710000000000073200000000007470000000000740000000000074701449000000000000312100000000000228598100000000000000009999123100000010000000000000BROBTCACNOR0100
012026030302ODPV3       010ODONTOPREV  ON      NM   R$  000000000135900000000013680000000001302000000000133800000000013510000000001350000000000135117240000000000008567400000000011466754300000000000000009999123100000010000000000000BRODPVACNOR4213
012026030302OFSA3       010OUROFINO S/AON      NM   R$  000000000244300000000024690000000002400000000000246200000000024690000000002411000000000246900011000000000000002000000000000004924000000000000000009999123100000010000000000000BROFSAACNOR7122
012026030302ONCO3       010ONCOCLINICASON      NM   R$  000000000025100000000002600000000000215000000000023400000000002150000000000214000000000021508703000000000009522200000000002234393400000000000000009999123100000010000000000000BRONCOACNOR6102
012026030302OPCT3       010OCEANPACT   ON      NM   R$  000000000094500000000009540000000000929000000000093800000000009410000000000934000000000094203399000000000001008800000000000946904100000000000000009999123100000010000000000000BROPCTACNOR0100
012026030302ORVR3       010ORIZON      ON      NM   R$  000000000736000000000074590000000007137000000000720000000000072000000000007200000000000722404950000000000000693500000000004993201100000000000000009999123100000010000000000000BRORVRACNOR0101
012026030302CBAV3       010CBA         ON      NM   R$  000000000101700000000010190000000001012000000000101400000000010140000000001013000000000101506538000000000010632900000000010786885200000000000000009999123100000010000000000000BRCBAVACNOR5104
012026030302CEAB3       010CEA MODAS   ON      NM   R$  000000000124100000000012410000000001169000000000119500000000012090000000001206000000000120921343000000000015002900000000017933274300000000000000009999123100000010000000000000BRCEABACNOR1105
012026030302CSNA3       010SID NACIONALON           R$  000000000081800000000008180000000000779000000000079200000000007910000000000791000000000079224727000000000015801000000000012524948300000000000000009999123100000010000000000000BRCSNAACNOR6264
012026030302EGIE3       010ENGIE BRASILON      NM   R$  000000000322000000000032470000000003162000000000321400000000032260000000003226000000000322913969000000000003169700000000010187779000000000000000009999123100000010000000000000BREGIEACNOR9132
012026030302PCAR3       010P.ACUCAR-CBDON      NM   R$  000000000029700000000003020000000000259000000000027600000000002590000000000259000000000026018842000000000047839300000000013218685800000000000000009999123100000010000000000000BRPCARACNOR3170
012026030302PRNR3       010PRINER      ON      NM   R$  000000000214000000000021430000000002028000000000208300000000021070000000002100000000000210905026000000000000833000000000001735293500000000000000009999123100000010000000000000BRPRNRACNOR4111
012026030302PSSA3       010PORTO SEGUROON      NM   R$  000000000500900000000051100000000004905000000000501300000000050630000000005059000000000506616551000000000002991400000000014997091900000000000000009999123100000010000000000000BRPSSAACNOR7161
012026030302FRAS3       010FRAS-LE     ON      N1   R$  000000000241600000000024600000000002390000000000241200000000024220000000002406000000000242202308000000000000344300000000000830480300000000000000009999123100000010000000000000BRFRASACNOR0163
012026030302GEPA3       010GER PARANAP ON           R$  000000000330000000000033000000000003300000000000330000000000033000000000003054000000000339000001000000000000000100000000000000330000000000000000009999123100000010000000000000BRGEPAACNOR2158
012026030302GEPA4       010GER PARANAP PN           R$  000000000343400000000035370000000003434000000000348500000000035370000000003441000000000359700002000000000000000200000000000000697100000000000000009999123100000010000000000000BRGEPAACNPR9165
012026030302GFSA3       010GAFISA      ON      NM   R$  000000000021900000000002270000000000193000000000020300000000001950000000000194000000000019501617000000000002263800000000000461256500000000000000009999123100000010000000000000BRGFSAACNOR3127
012026030302GGBR3       010GERDAU      ON      N1   R$  000000000177000000000017700000000001692000000000171300000000017100000000001703000000000171700210000000000000040000000000000068551200000000000000009999123100000010000000000000BRGGBRACNOR1198
012026030302GGBR4       010GERDAU      PN      N1   R$  000000000202500000000020250000000001941000000000196800000000019750000000001975000000000197635369000000000019616000000000038619875300000000000000009999123100000010000000000000BRGGBRACNPR8198
012026030302BLAU3       010BLAU        ON      NM   R$  000000000109100000000010910000000001011000000000103500000000010350000000001030000000000103502682000000000000509000000000000527240100000000000000009999123100000010000000000000BRBLAUACNOR8120
012026030302SANB11      010SANTANDER BRUNT          R$  000000000323300000000032930000000003170000000000323700000000032700000000003270000000000327124446000000000005574500000000018049025400000000000000009999123100000010000000000000BRSANBCDAM13172
012026030302SANB3       010SANTANDER BRON           R$  000000000163100000000016500000000001558000000000159500000000015920000000001591000000000159200621000000000000086900000000000138655600000000000000009999123100000010000000000000BRSANBACNOR8179
012026030302SANB4       010SANTANDER BRPN           R$  000000000167100000000016800000000001613000000000164400000000016480000000001645000000000164800730000000000000135700000000000223094100000000000000009999123100000010000000000000BRSANBACNPR5179
012026030302SMTO3       010SAO MARTINHOON      NM   R$  000000000181200000000018460000000001775000000000180300000000017960000000001795000000000180912382000000000003913200000000007057783600000000000000009999123100000010000000000000BRSMTOACNOR3129
012026030302SNSY5       010SANSUY      PNA          R$  000000000026300000000002640000000000263000000000026300000000002640000000000254000000000026300002000000000000000700000000000000184500000000000000009999123100000010000000000000BRSNSYACNPA5111
012026030302SOJA3       010BOA SAFRA   ON      NM   R$  000000000080800000000008150000000000797000000000080400000000008010000000000801000000000080402707000000000001282300000000001031424500000000000000009999123100000010000000000000BRSOJAACNOR9109
012026030302YDUQ3       010YDUQS PART  ON      NM   R$  000000000124400000000012530000000001207000000000122300000000012100000000001210000000000121413275000000000003765100000000004604876500000000000000009999123100000010000000000000BRYDUQACNOR3108
012026030302SMFT3       010SMART FIT   ON      NM   R$  000000000192400000000019570000000001886000000000192000000000019310000000001928000000000193127693000000000009858800000000018932834600000000000000009999123100000010000000000000BRSMFTACNOR1118
012026030302UNIP3       010UNIPAR      ON           R$  000000000638900000000063890000000006257000000000629600000000063490000000006281000000000635000036000000000000005300000000000033372200000000000000009999123100000010000000000000BRUNIPACNOR7210
012026030302UNIP5       010UNIPAR      PNA          R$  000000000699000000000069900000000006990000000000699000000000069900000000006723000000000699000002000000000000000200000000000001398000000000000000009999123100000010000000000000BRUNIPACNPA0212
012026030302UNIP6       010UNIPAR      PNB          R$  000000000670000000000068880000000006700000000000680200000000067690000000006769000000000678101976000000000000266000000000001809577100000000000000009999123100000010000000000000BRUNIPACNPB8210
012026030302USIM3       010USIMINAS    ON      N1   R$  000000000068800000000006880000000000646000000000066300000000006720000000000666000000000067201376000000000000623700000000000413982700000000000000009999123100000010000000000000BRUSIMACNOR3167
012026030302USIM5       010USIMINAS    PNA     N1   R$  000000000066700000000006700000000000645000000000066000000000006650000000000665000000000066618172000000000014018800000000009264599300000000000000009999123100000010000000000000BRUSIMACNPA6172
012026030302VAMO3       010VAMOS       ON      NM   R$  000000000041900000000004190000000000400000000000040900000000004150000000000414000000000041521214000000000021680100000000008873993300000000000000009999123100000010000000000000BRVAMOACNOR7109
012026030302WEST3       010WESTWING    ON      NM   R$  000000000058600000000006000000000000586000000000059100000000005950000000000596000000000060500018000000000000003500000000000002069400000000000000009999123100000010000000000000BRWESTACNOR3101
012026030302WHRL3       010WHIRLPOOL   ON           R$  000000000043600000000004450000000000432000000000043800000000004330000000000432000000000043400036000000000000009500000000000004168400000000000000009999123100000010000000000000BRWHRLACNOR5135
012026030302WHRL4       010WHIRLPOOL   PN           R$  000000000047300000000004750000000000460000000000046500000000004680000000000462000000000047400064000000000000015400000000000007161700000000000000009999123100000010000000000000BRWHRLACNPR2135
012026030302WIZC3       010WIZ CO      ON      NM   R$  000000000093600000000009360000000000906000000000091900000000009240000000000924000000000092502276000000000000586800000000000539436400000000000000009999123100000010000000000000BRWIZCACNOR5104
012026030302WLMM4       010WLM IND COM PN           R$  000000000237900000000024000000000002379000000000238900000000023800000000002265000000000242500005000000000000001000000000000002389800000000000000009999123100000010000000000000BRWLMMACNPR3125
012026030302REDE3       010REDE ENERGIAON           R$  000000000063100000000006320000000000628000000000063000000000006280000000000628000000000063300009000000000000010700000000000006751500000000000000009999123100000010000000000000BRREDEACNOR7134
012026030302RENT3       010LOCALIZA    ON      NM   R$  000000000491100000000050180000000004735000000000485900000000048900000000004886000000000489155797000000000016008500000000077787779600000000000000009999123100000010000000000000BRRENTACNOR4205
012026030302RENT4       010LOCALIZA    PN      NM   R$  000000000467000000000048060000000004550000000000468300000000046940000000004673000000000469403473000000000000597300000000002797611100000000000000009999123100000010000000000000BRRENTACNPR1100
012026030302UCAS3       010UNICASA     ON      NM   R$  000000000015100000000001540000000000143000000000014900000000001540000000000150000000000015400210000000000000092200000000000013765800000000000000009999123100000010000000000000BRUCASACNOR1114
012026030302UGPA3       010ULTRAPAR    ON      NM   R$  000000000249600000000025510000000002470000000000251000000000025360000000002528000000000253625631000000000008326300000000020906220800000000000000009999123100000010000000000000BRUGPAACNOR8159
012026030302RCSL3       010RECRUSUL    ON  EB       R$  000000000008200000000000930000000000079000000000008500000000000840000000000084000000000008501041000000000001818000000000000155070000000000000000009999123100000010000000000000BRRCSLACNOR4135
012026030302RCSL4       010RECRUSUL    PN  EB       R$  000000000016500000000002080000000000139000000000017700000000001710000000000170000000000017110038000000000016406800000000002904765400000000000000009999123100000010000000000000BRRCSLACNPR1135
012026030302RDOR3       010REDE D OR   ON      NM   R$  000000000381000000000039840000000003802000000000386200000000038650000000003863000000000386565203000000000016495600000000063712847400000000000000009999123100000010000000000000BRRDORACNOR8119
012026030302ESPA3       010ESPACOLASER ON      NM   R$  000000000010700000000001150000000000104000000000011000000000001140000000000111000000000011400533000000000000937000000000000103409700000000000000009999123100000010000000000000BRESPAACNOR7105
012026030302KLBN11      010KLABIN S/A  UNT     N2   R$  000000000201900000000020460000000001967000000000199600000000019880000000001988000000000198918860000000000007290300000000014558641000000000000000009999123100000010000000000000BRKLBNCDAM18151
012026030302KLBN3       010KLABIN S/A  ON      N2   R$  000000000040700000000004090000000000394000000000040000000000003960000000000396000000000039802746000000000001431600000000000573279900000000000000009999123100000010000000000000BRKLBNACNOR2179
012026030302KLBN4       010KLABIN S/A  PN      N2   R$  000000000040800000000004080000000000394000000000039800000000003980000000000397000000000039808373000000000006523000000000002601410500000000000000009999123100000010000000000000BRKLBNACNPR9179
012026030302MTRE3       010MITRE REALTYON      NM   R$  000000000039600000000003960000000000380000000000038700000000003870000000000387000000000038801864000000000001066000000000000412821300000000000000009999123100000010000000000000BRMTREACNOR6131
012026030302MTSA4       010METISA      PN           R$  000000000600000000000061490000000005900000000000613600000000061470000000005648000000000614700007000000000000006600000000000040504100000000000000009999123100000010000000000000BRMTSAACNPR9079
012026030302MULT3       010MULTIPLAN   ON      N2   R$  000000000325100000000033680000000003238000000000329800000000033050000000003302000000000330526484000000000006761200000000022304040600000000000000009999123100000010000000000000BRMULTACNOR5145
012026030302RANI3       010IRANI       ON      NM   R$  000000000098000000000009840000000000944000000000096600000000009690000000000969000000000097305973000000000001357600000000001312594400000000000000009999123100000010000000000000BRRANIACNOR5079
012026030302RAPT3       010RANDON PART ON      N1   R$  000000000066400000000006640000000000639000000000065100000000006430000000000642000000000064500068000000000000026300000000000017130800000000000000009999123100000010000000000000BRRAPTACNOR7166
012026030302RAPT4       010RANDON PART PN      N1   R$  000000000063700000000006470000000000629000000000063700000000006390000000000639000000000064211482000000000006381500000000004070493900000000000000009999123100000010000000000000BRRAPTACNPR4166
012026030302IBOV11      010IBOVESPA    IBO/         R$  000001835330000000183533000000018353300000001835330000000183533000000000000000000000000000000019000000000000000526000000000096538358000000000000009999123100001000000000000000BRIBOVINDM18016
012026030302ITUB3       010ITAUUNIBANCOON  EJ  N1   R$  000000000414900000000042320000000004081000000000414300000000041880000000004170000000000418908114000000000001797200000000007447274000000000000000009999123100000010000000000000BRITUBACNOR4366
012026030302ITUB4       010ITAUUNIBANCOPN  EJ  N1   R$  000000000442200000000044870000000004344000000000441500000000044380000000004437000000000444082095000000000054352300000000239969344800000000000000009999123100000010000000000000BRITUBACNPR1366
012026030302NATU3       010NATURA      ON      NM   R$  000000000086900000000008770000000000844000000000086200000000008570000000000857000000000086119058000000000008368800000000007219389300000000000000009999123100000010000000000000BRNATUACNOR6137
012026030302NEOE3       010NEOENERGIA  ON      NM   R$  000000000328300000000032900000000003269000000000327600000000032900000000003276000000000329003572000000000006516000000000021347025200000000000000009999123100000010000000000000BRNEOEACNOR3127
012026030302NGRD3       010NEOGRID     ON      NM   R$  000000000259100000000026390000000002516000000000259600000000026390000000002590000000000263900021000000000000003800000000000009867100000000000000009999123100000010000000000000BRNGRDACNOR3106
012026030302RECV3       010PETRORECSA  ON      NM   R$  000000000129000000000013000000000001230000000000125900000000012300000000001230000000000123120856000000000008231500000000010363676300000000000000009999123100000010000000000000BRRECVACNOR3110
012026030302SLCE3       010SLC AGRICOLAON      NM   R$  000000000163800000000016410000000001612000000000162500000000016230000000001620000000000162409965000000000002166000000000003520699800000000000000009999123100000010000000000000BRSLCEACNOR2128
012026030302TOTS3       010TOTVS       ON      NM   R$  000000000362500000000036950000000003561000000000362600000000036610000000003660000000000366222916000000000006026400000000021857626900000000000000009999123100000010000000000000BRTOTSACNOR8150
012026030302TPIS3       010TRIUNFO PARTON      NM   R$  000000000065500000000006780000000000620000000000064600000000006720000000000672000000000067600222000000000000052600000000000034016000000000000000009999123100000010000000000000BRTPISACNOR8120
012026030302TRAD3       010TC          ON      NM   R$  000000000023600000000002410000000000227000000000023300000000002330000000000230000000000023300045000000000000021100000000000004928200000000000000009999123100000010000000000000BRTRADACNOR3102
012026030302TRIS3       010TRISUL      ON      NM   R$  000000000071700000000007290000000000700000000000071300000000007140000000000713000000000071500928000000000000502500000000000358552900000000000000009999123100000010000000000000BRTRISACNOR4122
012026030302TTEN3       0103TENTOS     ON      NM   R$  000000000170100000000017240000000001644000000000169000000000017110000000001706000000000171206592000000000001583200000000002676341800000000000000009999123100000010000000000000BRTTENACNOR0105
012026030302TUPY3       010TUPY        ON      NM   R$  000000000128800000000012890000000001212000000000124800000000012410000000001240000000000125107000000000000002127800000000002657580100000000000000009999123100000010000000000000BRTUPYACNOR1185
012026030302SCAR3       010SAO CARLOS  ON      NM   R$  000000000146100000000014610000000001400000000000141900000000014140000000001414000000000142500211000000000000046100000000000065444100000000000000009999123100000010000000000000BRSCARACNOR7133
012026030302SEER3       010SER EDUCA   ON      NM   R$  000000000116900000000011720000000001129000000000115100000000011550000000001155000000000115606384000000000001188400000000001368943100000000000000009999123100000010000000000000BRSEERACNOR5120
012026030302SEQL3       010SEQUOIA LOG ON      NM   R$  000000000003000000000000310000000000028000000000002900000000000290000000000029000000000003000515000000000001223900000000000035993600000000000000009999123100000010000000000000BRSEQLACNOR2108
012026030302SHOW3       010TIME FOR FUNON      NM   R$  000000000045700000000004580000000000432000000000044100000000004420000000000440000000000044200493000000000000129400000000000057156300000000000000009999123100000010000000000000BRSHOWACNOR7106
012026030302FESA3       010FERBASA     ON      N1   R$  000000000121500000000012150000000001215000000000121500000000012150000000001215000000000125800003000000000000000300000000000000364500000000000000009999123100000010000000000000BRFESAACNOR8194
012026030302FESA4       010FERBASA     PN      N1   R$  000000000081300000000008130000000000785000000000079300000000007920000000000791000000000079302427000000000000845000000000000670486400000000000000009999123100000010000000000000BRFESAACNPR5090
012026030302FHER3       010FER HERINGERON      NM   R$  000000000043000000000004300000000000415000000000042500000000004240000000000415000000000042500051000000000000018700000000000007953900000000000000009999123100000010000000000000BRFHERACNOR5103
012026030302FIGE3       010INVEST BEMGEON           R$  000000000220600000000022060000000002206000000000220600000000022060000000002205000000000596000001000000000000000100000000000000220600000000000000009999123100000010000000000000BRFIGEACNOR6132
012026030302FIQE3       010UNIFIQUE    ON      NM   R$  000000000053100000000005390000000000516000000000052800000000005340000000000530000000000053401548000000000001295100000000000683941800000000000000009999123100000010000000000000BRFIQEACNOR5112
012026030302SHUL4       010SCHULZ      PN           R$  000000000054000000000005450000000000510000000000053100000000005360000000000536000000000053901648000000000000856900000000000455603700000000000000009999123100000010000000000000BRSHULACNPR4163
012026030302SIMH3       010SIMPAR      ON      NM   R$  000000000122000000000012290000000001133000000000116600000000011660000000001166000000000117016234000000000009292600000000010840457000000000000000009999123100000010000000000000BRSIMHACNOR0110
012026030302TASA3       010TAURUS ARMASON      N2   R$  000000000059200000000005920000000000558000000000056200000000005670000000000566000000000056900092000000000000093700000000000052687300000000000000009999123100000010000000000000BRTASAACNOR7106
012026030302TASA4       010TAURUS ARMASPN      N2   R$  000000000059500000000005950000000000568000000000057500000000005700000000000570000000000057102713000000000000759200000000000437121800000000000000009999123100000010000000000000BRTASAACNPR4106
012026030302TCSA3       010TECNISA     ON      NM   R$  000000000015700000000001580000000000149000000000015100000000001500000000000149000000000015000271000000000000199800000000000030289000000000000000009999123100000010000000000000BRTCSAACNOR3112
012026030302TECN3       010TECHNOS     ON      NM   R$  000000000081500000000008270000000000805000000000080900000000008050000000000805000000000082200101000000000000026300000000000021297700000000000000009999123100000010000000000000BRTECNACNOR6111
012026030302TELB3       010TELEBRAS    ON           R$  000000000136500000000013670000000001345000000000135900000000013600000000001351000000000138400013000000000000001300000000000001767900000000000000009999123100000010000000000000BRTELBACNOR2142
012026030302TELB4       010TELEBRAS    PN           R$  000000000082000000000008200000000000800000000000080600000000008000000000000800000000000082100007000000000000000800000000000000645200000000000000009999123100000010000000000000BRTELBACNPR9142
012026030302TEND3       010TENDA       ON      NM   R$  000000000287900000000028940000000002811000000000284300000000028410000000002841000000000284414076000000000003093700000000008798294700000000000000009999123100000010000000000000BRTENDACNOR4114
012026030302BRAP4       010BRADESPAR   PN      N1   R$  000000000240200000000024040000000002315000000000233700000000023380000000002338000000000233916696000000000005295500000000012378483000000000000000009999123100000010000000000000BRBRAPACNPR2153
012026030302COCE5       010COELCE      PNA          R$  000000000320100000000032020000000003101000000000313100000000031150000000003115000000000318000037000000000000005100000000000015972600000000000000009999123100000010000000000000BRCOCEACNPA3150
012026030302COGN3       010COGNA ON    ON      NM   R$  000000000033200000000003380000000000325000000000033100000000003290000000000329000000000033024437000000000035732200000000011828983400000000000000009999123100000010000000000000BRCOGNACNOR2110
012026030302CVCB3       010CVC BRASIL  ON      NM   R$  000000000021500000000002150000000000204000000000020900000000002100000000000210000000000021109596000000000022493100000000004714252200000000000000009999123100000010000000000000BRCVCBACNOR1118
012026030302CXSE3       010CAIXA SEGURION      NM   R$  000000000177400000000017770000000001721000000000174700000000017580000000001751000000000175918596000000000005706300000000009973362000000000000000009999123100000010000000000000BRCXSEACNOR7114
012026030302TFCO4       010TRACK FIELD PN      N2   R$  000000000174100000000017410000000001612000000000164700000000016580000000001650000000000166004623000000000000936400000000001543072600000000000000009999123100000010000000000000BRTFCOACNPR8121
012026030302TGMA3       010TEGMA       ON      NM   R$  000000000390500000000040010000000003895000000000392700000000039220000000003922000000000394102832000000000000535600000000002103388200000000000000009999123100000010000000000000BRTGMAACNOR7150
012026030302TIMS3       010TIM         ON      NM   R$  000000000260000000000026920000000002598000000000266000000000026750000000002675000000000267721840000000000006719200000000017877277000000000000000009999123100000010000000000000BRTIMSACNOR5129
012026030302TKNO4       010TEKNO       PN           R$  000000002179900000000219000000000021794000000002180200000000218150000000021820000000002240000030000000000000013000000000000283427700000000000000009999123100000010000000000000BRTKNOACNPR5080
012026030302PFRM3       010PROFARMA    ON      NM   R$  000000000088000000000009070000000000832000000000087000000000009070000000000888000000000090901320000000000000355900000000000309940900000000000000009999123100000010000000000000BRPFRMACNOR1122
012026030302PGMN3       010PAGUE MENOS ON      NM   R$  000000000065800000000006580000000000614000000000063500000000006370000000000636000000000063818760000000000012361800000000007853678000000000000000009999123100000010000000000000BRPGMNACNOR8106
012026030302PINE3       010PINE        ON      N2   R$  000000000125100000000012860000000001215000000000123200000000012150000000001215000000000123700020000000000000006000000000000007393100000000000000009999123100000010000000000000BRPINEACNOR1160
012026030302PINE4       010PINE        PN      N2   R$  000000000125000000000012840000000001161000000000122500000000012320000000001232000000000123403950000000000001512100000000001852557300000000000000009999123100000010000000000000BRPINEACNPR8160
012026030302PLAS3       010PLASCAR PARTON           R$  000000000043500000000004350000000000435000000000043500000000004350000000000310000000000053900002000000000000000200000000000000087000000000000000009999123100000010000000000000BRPLASACNOR2106
012026030302PLPL3       010PLANOEPLANO ON      NM   R$  000000000145900000000014690000000001397000000000142400000000014220000000001420000000000142912421000000000003575400000000005091376400000000000000009999123100000010000000000000BRPLPLACNOR5106
012026030302HAGA3       010HAGA S/A    ON           R$  000000000022700000000002270000000000221000000000022400000000002270000000000212000000000022700006000000000000001800000000000000404800000000000000009999123100000010000000000000BRHAGAACNOR7103
012026030302HAGA4       010HAGA S/A    PN           R$  000000000014500000000001470000000000140000000000014200000000001460000000000145000000000014600016000000000000007900000000000001126100000000000000009999123100000010000000000000BRHAGAACNPR4103
012026030302HAPV3       010HAPVIDA     ON      NM   R$  000000000100700000000010310000000000985000000000100000000000010010000000001001000000000100824347000000000015973400000000015977187900000000000000009999123100000010000000000000BRHAPVACNOR4119
012026030302IRBR3       010IRBBRASIL REON      NM   R$  000000000596900000000059690000000005757000000000583300000000058690000000005869000000000587006281000000000001519400000000008863324600000000000000009999123100000010000000000000BRIRBRACNOR4113
012026030302JALL3       010JALLESMACHADON      NM   R$  000000000031100000000003110000000000298000000000030300000000002980000000000298000000000030000802000000000001012900000000000307438400000000000000009999123100000010000000000000BRJALLACNOR0106
012026030302JHSF3       010JHSF PART   ON  ED  NM   R$  000000000095500000000009550000000000921000000000093400000000009310000000000930000000000093212439000000000004797100000000004480926200000000000000009999123100000010000000000000BRJHSFACNOR2157
012026030302MILS3       010MILLS       ON      NM   R$  000000000149900000000015020000000001459000000000148000000000014870000000001477000000000148804440000000000000931300000000001379197400000000000000009999123100000010000000000000BRMILSACNOR2132
012026030302MLAS3       010MULTILASER  ON      NM   R$  000000000013000000000001300000000000125000000000012600000000001300000000000129000000000013000781000000000001388900000000000176209200000000000000009999123100000010000000000000BRMLASACNOR9102
012026030302MNDL3       010MUNDIAL     ON           R$  000000000178000000000017800000000001780000000000178000000000017800000000001780000000000190000001000000000000000100000000000000178000000000000000009999123100000010000000000000BRMNDLACNOR4109
012026030302MNPR3       010MINUPAR     ON           R$  000000000044000000000004400000000000416000000000042500000000004340000000000430000000000043700038000000000000008000000000000003407200000000000000009999123100000010000000000000BRMNPRACNOR5123
012026030302MOTV3       010MOTIVA SA   ON      NM   R$  000000000157800000000016180000000001530000000000157700000000015770000000001567000000000157938133000000000016663600000000026287564700000000000000009999123100000010000000000000BRMOTVACNOR7102
012026030302JSLG3       010JSL         ON      NM   R$  000000000078200000000007970000000000750000000000077400000000007800000000000780000000000078306437000000000001889900000000001464231800000000000000009999123100000010000000000000BRJSLGACNOR2123
012026030302HYPE3       010HYPERA      ON      NM   R$  000000000220700000000022160000000002170000000000219300000000021900000000002190000000000219119743000000000007471300000000016388283400000000000000009999123100000010000000000000BRHYPEACNOR0150
012026030302CSAN3       010COSAN       ON  ATZ NM   R$  000000000058800000000006080000000000573000000000059000000000005970000000000597000000000059845288000000000045478900000000026832703700000000000000009999123100000010000000000000BRCSANACNOR6129
012026030302AALR3       010ALLIAR      ON      NM   R$  000000000048600000000005140000000000465000000000048300000000004900000000000481000000000049000176000000000000090100000000000043584400000000000000009999123100000010000000000000BRAALRACNOR6104
012026030302BGIP3       010BANESE      ON           R$  000000000610000000000065000000000006100000000000629700000000065000000000006393000000000658400006000000000000001000000000000006297300000000000000009999123100000010000000000000BRBGIPACNOR1215
012026030302BGIP4       010BANESE      PN           R$  000000000360100000000037000000000003601000000000367800000000037000000000003601000000000370000012000000000000001400000000000005150400000000000000009999123100000010000000000000BRBGIPACNPR8215
012026030302BHIA3       010CASAS BAHIA ON      NM   R$  000000000028500000000002900000000000281000000000028500000000002830000000000283000000000028402486000000000004625400000000001319388900000000000000009999123100000010000000000000BRBHIAACNOR1104
012026030302CEBR3       010CEB         ON           R$  000000000307800000000030850000000003035000000000305900000000030640000000003070000000000309900013000000000000003200000000000009789200000000000000009999123100000010000000000000BRCEBRACNOR5129
012026030302BMEB3       010MERCANTIL   ON      N1   R$  000000000695000000000073000000000006606000000000707500000000073000000000007207000000000740000033000000000000004900000000000034672200000000000000009999123100000010000000000000BRBMEBACNOR8210
012026030302BMEB4       010MERCANTIL   PN      N1   R$  000000000827500000000082750000000007750000000000797400000000080000000000007983000000000800000300000000000000045900000000000366019300000000000000009999123100000010000000000000BRBMEBACNPR5215
012026030302BMGB4       010BANCO BMG   PN      N1   R$  000000000051400000000005170000000000491000000000050000000000004970000000000497000000000049804374000000000003073700000000001536891000000000000000009999123100000010000000000000BRBMGBACNPR0118
012026030302CMIN3       010CSNMINERACAOON      N2   R$  000000000053000000000005330000000000519000000000052500000000005260000000000526000000000052717814000000000012377300000000006507933100000000000000009999123100000010000000000000BRCMINACNOR2116
012026030302CSUD3       010CSU DIGITAL ON      NM   R$  000000000193400000000019380000000001875000000000190200000000019260000000001900000000000192600665000000000000106100000000000201895000000000000000009999123100000010000000000000BRCSUDACNOR5117
012026030302KEPL3       010KEPLER WEBERON      NM   R$  000000000075000000000008660000000000750000000000081900000000008310000000000831000000000083719852000000000013304400000000010904844600000000000000009999123100000010000000000000BRKEPLACNOR1069
012026030302MOVI3       010MOVIDA      ON      NM   R$  000000000142400000000014260000000001354000000000137900000000013610000000001360000000000136115426000000000007766400000000010713176000000000000000009999123100000010000000000000BRMOVIACNOR0126
012026030302MRVE3       010MRV         ON      NM   R$  000000000095700000000009730000000000926000000000094800000000009530000000000953000000000095420767000000000011141700000000010569087800000000000000009999123100000010000000000000BRMRVEACNOR2128
012026030302POSI3       010POSITIVO TECON      NM   R$  000000000040700000000004070000000000392000000000039700000000003970000000000395000000000039702911000000000001786500000000000709481300000000000000009999123100000010000000000000BRPOSIACNOR9118
012026030302PRIO3       010PETRORIO    ON  ATZ NM   R$  000000000586000000000058900000000005472000000000564100000000055120000000005511000000000551564764000000000024747300000000139600634600000000000000009999123100000010000000000000BRPRIOACNOR1112
012026030302RAIZ4       010RAIZEN      PN      N2   R$  000000000006500000000000710000000000061000000000006600000000000690000000000068000000000006924871000000000097904400000000006466032300000000000000009999123100000010000000000000BRRAIZACNPR6112
012026030302BSLI3       010BRB BANCO   ON           R$  000000000046100000000004680000000000405000000000043800000000004050000000000405000000000044100149000000000000065200000000000028587100000000000000009999123100000010000000000000BRBSLIACNOR5198
012026030302BSLI4       010BRB BANCO   PN           R$  000000000046900000000004820000000000445000000000045800000000004460000000000446000000000045400115000000000000053600000000000024569600000000000000009999123100000010000000000000BRBSLIACNPR2198
012026030302CSED3       010CRUZEIRO EDUON      NM   R$  000000000064500000000006510000000000623000000000063600000000006340000000000633000000000063401242000000000000407000000000000259020100000000000000009999123100000010000000000000BRCSEDACNOR9107
012026030302CSMG3       010COPASA      ON      NM   R$  000000000542300000000054230000000005259000000000533400000000053740000000005374000000000537516666000000000003794900000000020245577500000000000000009999123100000010000000000000BRCSMGACNOR5183
012026030302DMVF3       010D1000VFARMA ON      NM   R$  000000000070200000000007020000000000673000000000068100000000006750000000000675000000000068500280000000000000050700000000000034570800000000000000009999123100000010000000000000BRDMVFACNOR9100
012026030302DOHL4       010DOHLER      PN           R$  000000000037800000000003790000000000374000000000037600000000003790000000000366000000000038100005000000000000000800000000000000301200000000000000009999123100000010000000000000BRDOHLACNPR9067
012026030302DOTZ3       010DOTZ SA     ON      NM   R$  000000000030900000000003090000000000292000000000030000000000003010000000000294000000000030100036000000000000011000000000000003305400000000000000009999123100000010000000000000BRDOTZACNOR7101
012026030302DXCO3       010DEXCO       ON      NM   R$  000000000051800000000005270000000000509000000000051700000000005190000000000515000000000052007020000000000006429700000000003327731200000000000000009999123100000010000000000000BRDXCOACNOR8108
012026030302EALT3       010ACO ALTONA  ON           R$  000000000140100000000014010000000001401000000000140100000000014010000000001405000000000145600002000000000000000300000000000000420300000000000000009999123100000010000000000000BREALTACNOR4140
012026030302EALT4       010ACO ALTONA  PN           R$  000000000145000000000014710000000001371000000000143200000000014200000000001420000000000144500188000000000000077700000000000111328600000000000000009999123100000010000000000000BREALTACNPR1140
012026030302ECOR3       010ECORODOVIAS ON      NM   R$  000000000103600000000010360000000000988000000000100700000000010050000000001003000000000100821917000000000010701900000000010778416100000000000000009999123100000010000000000000BRECORACNOR8122
012026030302GOLL54      010GOL         PN *P        R$  000000000112800000000011500000000001125000000000114500000000011500000000001150000000000115702044000000000069327000000000000079384295000000000000009999123100010000000000000000BRGOLLA01PR5100
012026030302GRND3       010GRENDENE    ON      NM   R$  000000000050300000000005030000000000490000000000049200000000004930000000000491000000000049410491000000000004654100000000002294136300000000000000009999123100000010000000000000BRGRNDACNOR3182
012026030302PNVL3       010DIMED       ON      NM   R$  000000000158500000000015850000000001481000000000151300000000015200000000001499000000000152008025000000000001858300000000002813136700000000000000009999123100000010000000000000BRPNVLACNOR9213
012026030302POMO3       010MARCOPOLO   ON      N2   R$  000000000062400000000006300000000000601000000000061100000000006250000000000623000000000062502278000000000001284100000000000785645300000000000000009999123100000010000000000000BRPOMOACNOR0105
012026030302POMO4       010MARCOPOLO   PN      N2   R$  000000000064800000000006690000000000636000000000065300000000006600000000000659000000000066128310000000000017564900000000011469987600000000000000009999123100000010000000000000BRPOMOACNPR7105
012026030302RAIL3       010RUMO S.A.   ON      NM   R$  000000000150900000000015570000000001489000000000152100000000015470000000001542000000000154825257000000000012439600000000018931971900000000000000009999123100000010000000000000BRRAILACNOR9106
012026030302GOAU4       010GERDAU MET  PN      N1   R$  000000000090600000000009060000000000872000000000088100000000008830000000000883000000000088426383000000000017618300000000015537901800000000000000009999123100000010000000000000BRGOAUACNPR8275
012026030302IFCM3       010INFRACOMM   ON      NM   R$  000000000008400000000000920000000000079000000000008400000000000850000000000084000000000008500769000000000000932500000000000078947700000000000000009999123100000010000000000000BRIFCMACNOR8109
012026030302IGTI11      010IGUATEMI S.AUNT ED  N1   R$  000000000280000000000028590000000002710000000000280700000000028220000000002822000000000282317852000000000004332300000000012164462700000000000000009999123100000010000000000000BRIGTICDAM16109
012026030302IGTI3       010IGUATEMI S.AON  ED  N1   R$  000000000032700000000003300000000000323000000000032600000000003290000000000326000000000032900056000000000000019200000000000006276700000000000000009999123100000010000000000000BRIGTIACNOR8109
012026030302BRSR3       010BANRISUL    ON      N1   R$  000000000196100000000019610000000001898000000000191600000000019160000000001916000000000192500049000000000000008000000000000015332400000000000000009999123100000010000000000000BRBRSRACNOR3197
012026030302BRSR5       010BANRISUL    PNA     N1   R$  000000000187900000000018790000000001879000000000187900000000018790000000001739000000000198000001000000000000000100000000000000187900000000000000009999123100000010000000000000BRBRSRACNPA6201
012026030302BRSR6       010BANRISUL    PNB     N1   R$  000000000183400000000018380000000001765000000000179400000000017930000000001792000000000179306397000000000001801200000000003232635200000000000000009999123100000010000000000000BRBRSRACNPB4200
012026030302BRST3       010BRISANET    ON      NM   R$  000000000031100000000003110000000000299000000000030300000000003000000000000298000000000030100923000000000000667400000000000202434600000000000000009999123100000010000000000000BRBRSTACNOR9102
012026030302IGTI4       010IGUATEMI S.APN  ED  N1   R$  000000000120000000000012320000000001200000000000121600000000012320000000001101000000000139900004000000000000000700000000000000851300000000000000009999123100000010000000000000BRIGTIACNPR5109
012026030302INEP3       010INEPAR      ON           R$  000000000012500000000001250000000000120000000000012200000000001210000000000121000000000012400051000000000000035700000000000004363900000000000000009999123100000010000000000000BRINEPACNOR1145
012026030302INEP4       010INEPAR      PN           R$  000000000011200000000001120000000000107000000000010800000000001080000000000108000000000011000031000000000000029500000000000003200300000000000000009999123100000010000000000000BRINEPACNPR8145
012026030302INTB3       010INTELBRAS   ON      NM   R$  000000000134400000000013450000000001296000000000132100000000013230000000001318000000000132308344000000000002537300000000003351830200000000000000009999123100000010000000000000BRINTBACNOR9115
012026030302MDIA3       010M.DIASBRANCOON  ED  NM   R$  000000000230600000000023230000000002259000000000228600000000022800000000002280000000000228205523000000000001108700000000002534522500000000000000009999123100000010000000000000BRMDIAACNOR7151
012026030302MDNE3       010MOURA DUBEUXON      NM   R$  000000000318800000000031940000000003014000000000307600000000030810000000003061000000000308110327000000000002837300000000008730104400000000000000009999123100000010000000000000BRMDNEACNOR9104
012026030302MEAL3       010IMC S/A     ON      NM   R$  000000000011600000000001160000000000113000000000011300000000001140000000000113000000000011400094000000000000135100000000000015395600000000000000009999123100000010000000000000BRMEALACNOR9105
012026030302MELK3       010MELNICK     ON      NM   R$  000000000039900000000003990000000000381000000000038400000000003820000000000381000000000038402966000000000000956000000000000367623200000000000000009999123100000010000000000000BRMELKACNOR8116
012026030302MGEL4       010MANGELS INDLPN           R$  000000000061300000000006240000000000613000000000061800000000006240000000000603000000000062600002000000000000000200000000000000123700000000000000009999123100000010000000000000BRMGELACNPR3147
012026030302MGLU3       010MAGAZ LUIZA ON      NM   R$  000000000088400000000009170000000000855000000000088100000000009000000000000899000000000090128438000000000023872900000000021052129000000000000000009999123100000010000000000000BRMGLUACNOR2130
012026030302PETR3       010PETROBRAS   ON      N2   R$  000000000450400000000045780000000004429000000000448800000000044380000000004437000000000443842783000000000026054900000000116941396700000000000000009999123100000010000000000000BRPETRACNOR9212
012026030302PETR4       010PETROBRAS   PN  ATZ N2   R$  000000000417000000000042000000000004075000000000412300000000040950000000004093000000000409507820000000000093893800000000387173553400000000000000009999123100000010000000000000BRPETRACNPR6224
012026030302RADL3       010RAIADROGASILON      NM   R$  000000000238200000000024420000000002340000000000238500000000023930000000002380000000000239442792000000000012938200000000030863291500000000000000009999123100000010000000000000BRRADLACNOR0165
012026030302GGPS3       010GPS         ON      NM   R$  000000000180500000000018110000000001710000000000178700000000018020000000001800000000000180309035000000000002218200000000003964114800000000000000009999123100000010000000000000BRGGPSACNOR9106
012026030302GMAT3       010GRUPO MATEUSON      NM   R$  000000000056000000000005640000000000534000000000054700000000005440000000000544000000000054510110000000000015075800000000008260073000000000000000009999123100000010000000000000BRGMATACNOR7109
012026030302GOAU3       010GERDAU MET  ON      N1   R$  000000000088700000000008870000000000857000000000086600000000008640000000000863000000000086400358000000000000072000000000000062416200000000000000009999123100000010000000000000BRGOAUACNOR1274
012026030302MATD3       010MATER DEI   ON      NM   R$  000000000059600000000006050000000000577000000000059300000000005960000000000588000000000059601518000000000000237300000000000140841500000000000000009999123100000010000000000000BRMATDACNOR4106
012026030302MBRF3       010MARFRIG     ON      NM   R$  000000000200000000000020400000000001950000000000197900000000019540000000001954000000000195722847000000000008335200000000016497398600000000000000009999123100000010000000000000BRMBRFACNOR1100
012026030302PDGR3       010PDG REALT   ON      NM   R$  000000000022100000000002210000000000207000000000021100000000002070000000000207000000000021000049000000000000017400000000000003678000000000000000009999123100000010000000000000BRPDGRACNOR8123
012026030302PDTC3       010PADTEC      ON      NM   R$  000000000015000000000001510000000000148000000000015000000000001500000000000150000000000015100068000000000000081000000000000012167800000000000000009999123100000010000000000000BRPDTCACNOR3101
012026030302PEAB3       010PAR AL BAHIAON           R$  000000000393000000000039300000000003930000000000393000000000039300000000003850000000000415000002000000000000000300000000000001179000000000000000009999123100000010000000000000BRPEABACNOR3138
012026030302PEAB4       010PAR AL BAHIAPN           R$  000000000390000000000040000000000003875000000000390000000000040000000000003879000000000419900004000000000000000600000000000002340000000000000000009999123100000010000000000000BRPEABACNPR0137
012026030302PTBL3       010PORTOBELLO  ON      NM   R$  000000000031800000000003220000000000310000000000031400000000003160000000000316000000000032100525000000000000790900000000000248704900000000000000009999123100000010000000000000BRPTBLACNOR8132
012026030302PTNT3       010PETTENATI   ON           R$  000000000084100000000008640000000000838000000000084000000000008380000000000838000000000085900006000000000000002100000000000001765700000000000000009999123100000010000000000000BRPTNTACNOR6044
012026030302PTNT4       010PETTENATI   PN           R$  000000000084000000000008430000000000837000000000083900000000008400000000000840000000000084300029000000000000073300000000000061565400000000000000009999123100000010000000000000BRPTNTACNPR3049
012026030302QUAL3       010QUALICORP   ON      NM   R$  000000000020200000000002020000000000188000000000019200000000001890000000000188000000000019007334000000000006986100000000001347262600000000000000009999123100000010000000000000BRQUALACNOR6122
012026030302RIAA3       010RIACHUELO   ON      NM   R$  000000000095700000000009700000000000932000000000094700000000009440000000000944000000000094514542000000000003687600000000003492586000000000000000009999123100000010000000000000BRRIAAACNOR2100
012026030302RNEW3       010RENOVA      ON      N2   R$  000000000013200000000001340000000000127000000000013000000000001320000000000128000000000013200095000000000000046600000000000006065100000000000000009999123100000010000000000000BRRNEWACNOR8113
012026030302RNEW4       010RENOVA      PN      N2   R$  000000000013700000000001400000000000125000000000013100000000001270000000000127000000000012900221000000000000284200000000000037422800000000000000009999123100000010000000000000BRRNEWACNPR5113
012026030302ROMI3       010ROMI        ON      NM   R$  000000000081600000000008160000000000805000000000080900000000008120000000000810000000000081200757000000000000166300000000000134677200000000000000009999123100000010000000000000BRROMIACNOR8201
012026030302ATED3       010ATOM EDUC   ON           R$  000000000020300000000002050000000000190000000000019800000000002010000000000193000000000020300010000000000000005200000000000001032300000000000000009999123100000010000000000000BRATEDACNOR1100
012026030302AUAU3       010PETZCOBASI  ON      NM   R$  000000000029900000000003100000000000290000000000030000000000003050000000000305000000000030707605000000000006342600000000001905500700000000000000009999123100000010000000000000BRAUAUACNOR1100
012026030302AURE3       010AUREN       ON      NM   R$  000000000115800000000011670000000001121000000000114000000000011560000000001153000000000115715532000000000005938000000000006770653900000000000000009999123100000010000000000000BRAUREACNOR9105
012026030302CPFE3       010CPFL ENERGIAON      NM   R$  000000000484000000000048400000000004645000000000472700000000047590000000004746000000000475915081000000000002878000000000013606487900000000000000009999123100000010000000000000BRCPFEACNOR0138
012026030302CPLE3       010COPEL       ON      NM   R$  000000000142000000000014470000000001398000000000142500000000014380000000001431000000000143836954000000000022550500000000032136985300000000000000009999123100000010000000000000BRCPLEACNOR8153
012026030302ARML3       010ARMAC       ON      NM   R$  000000000059300000000005990000000000567000000000057500000000005700000000000570000000000057302202000000000001100500000000000633256500000000000000009999123100000010000000000000BRARMLACNOR1117
012026030302ARND3       010ARANDU      ON      NM   R$  000000000008400000000000840000000000084000000000008400000000000840000000000075000000000008400006000000000000002400000000000000201600000000000000009999123100000010000000000000BRARNDACNOR6100
012026030302ASAI3       010ASSAI       ON      NM   R$  000000000088800000000008940000000000865000000000087600000000008650000000000865000000000086634738000000000018567900000000016269080600000000000000009999123100000010000000000000BRASAIACNOR0109
012026030302AXIA7       010AXIA ENERGIAPNC     N1   R$  000000000578100000000058660000000005636000000000574800000000057580000000005758000000000576115084000000000003436400000000019754879700000000000000009999123100000010000000000000BRAXIAACNPC9100
012026030302BBSE3       010BBSEGURIDADEON      NM   R$  000000000343900000000034530000000003369000000000341500000000034400000000003440000000000344123842000000000008235700000000028129232000000000000000009999123100000010000000000000BRBBSEACNOR5128
012026030302BRBI11      010BR PARTNERS UNT     N2   R$  000000000188900000000018890000000001827000000000184900000000018500000000001850000000000185401964000000000000273800000000000506377100000000000000009999123100000010000000000000BRBRBICDAM10116
012026030302DASA3       010DASA        ON      NM   R$  000000000038800000000003880000000000365000000000037200000000003690000000000369000000000037202947000000000001350800000000000502831900000000000000009999123100000010000000000000BRDASAACNOR1123
012026030302DESK3       010DESKTOP     ON      NM   R$  000000000133300000000013670000000001302000000000133500000000013350000000001335000000000134307977000000000001412200000000001886567200000000000000009999123100000010000000000000BRDESKACNOR2106
012026030302DEXP3       010DEXXOS PAR  ON      N1   R$  000000000074900000000007520000000000740000000000074500000000007500000000000750000000000075100747000000000000210700000000000157080300000000000000009999123100000010000000000000BRDEXPACNOR1109
012026030302DEXP4       010DEXXOS PAR  PN      N1   R$  000000000075100000000007510000000000735000000000074800000000007390000000000739000000000074600029000000000000021200000000000015864500000000000000009999123100000010000000000000BRDEXPACNPR8109
012026030302DIRR3       010DIRECIONAL  ON      NM   R$  000000000153700000000015470000000001482000000000151500000000015230000000001520000000000152527110000000000008069500000000012232984900000000000000009999123100000010000000000000BRDIRRACNOR0123
012026030302BALM4       010BAUMER      PN           R$  000000000187800000000019590000000001798000000000184100000000019590000000001860000000000196100010000000000000001800000000000003313900000000000000009999123100000010000000000000BRBALMACNPR2060
012026030302BAUH4       010EXCELSIOR   PN           R$  000000000929900000000092990000000009299000000000929900000000092990000000000000000000000000000001000000000000001000000000000009299000000000000000009999123100000010000000000000BRBAUHACNPR3119
012026030302BAZA3       010AMAZONIA    ON           R$  000000000877900000000088200000000008635000000000870400000000087210000000008676000000000875900055000000000000005700000000000049615700000000000000009999123100000010000000000000BRBAZAACNOR0180
012026030302BBAS3       010BRASIL      ON  ERJ NM   R$  000000000261800000000026290000000002538000000000258100000000025770000000002577000000000257855579000000000062065500000000160202157100000000000000009999123100000010000000000000BRBBASACNOR3336
012026030302BRAV3       010BRAVA       ON  ATZ NM   R$  000000000195200000000019580000000001860000000000191100000000018610000000001861000000000186523867000000000010568600000000020198063300000000000000009999123100000010000000000000BRBRAVACNOR3104
012026030302CYRE3       010CYRELA REALTON      NM   R$  000000000293800000000029640000000002853000000000290500000000029240000000002924000000000292532901000000000008309300000000024140192400000000000000009999123100000010000000000000BRCYREACNOR7143
012026030302BRKM3       010BRASKEM     ON      N1   R$  000000000086300000000008990000000000831000000000086300000000008800000000000863000000000092900137000000000000026000000000000022455400000000000000009999123100000010000000000000BRBRKMACNOR1119
012026030302BRKM5       010BRASKEM     PNA     N1   R$  000000000091500000000009660000000000889000000000092600000000009550000000000951000000000095512193000000000004772900000000004424135900000000000000009999123100000010000000000000BRBRKMACNPA4123
012026030302CRPG5       010CRISTAL     PNA          R$  000000000176500000000017650000000001734000000000174800000000017400000000001740000000000179900013000000000000002500000000000004372300000000000000009999123100000010000000000000BRCRPGACNPA3119
012026030302CRPG6       010CRISTAL     PNB          R$  000000000180300000000018200000000001775000000000180000000000017750000000001756000000000184500005000000000000000500000000000000900100000000000000009999123100000010000000000000BRCRPGACNPB1119
012026030302CYRE4       010CYRELA REALTPN      NM   R$  000000000281600000000028160000000002700000000000273800000000027640000000002742000000000276404259000000000000833600000000002282926700000000000000009999123100000010000000000000BRCYREACNPR4114
012026030302ALPA3       010ALPARGATAS  ON      N1   R$  000000000124000000000012400000000001177000000000119700000000012290000000001200000000000123400084000000000000017500000000000020961400000000000000009999123100000010000000000000BRALPAACNOR0234
012026030302ALPA4       010ALPARGATAS  PN      N1   R$  000000000146200000000014740000000001358000000000138400000000013700000000001361000000000137112334000000000003494200000000004836659900000000000000009999123100000010000000000000BRALPAACNPR7235
012026030302ALPK3       010ESTAPAR     ON      NM   R$  000000000050700000000005080000000000485000000000049600000000004980000000000498000000000049900796000000000000301900000000000149927100000000000000009999123100000010000000000000BRALPKACNOR9101
012026030302ALUP11      010ALUPAR      UNT     N2   R$  000000000345700000000034880000000003369000000000340300000000034280000000003400000000000342806484000000000001101100000000003747585500000000000000009999123100000010000000000000BRALUPCDAM15126
012026030302ALUP3       010ALUPAR      ON      N2   R$  000000000128900000000012890000000001225000000000124000000000012330000000001233000000000125000095000000000000020400000000000025309900000000000000009999123100000010000000000000BRALUPACNOR8126
012026030302ALUP4       010ALUPAR      PN      N2   R$  000000000111300000000011130000000001074000000000108600000000010940000000001078000000000110000144000000000000022900000000000024880800000000000000009999123100000010000000000000BRALUPACNPR5126
012026030302AMAR3       010LOJAS MARISAON      NM   R$  000000000008900000000000890000000000087000000000008800000000000870000000000087000000000008900278000000000000191600000000000016871000000000000000009999123100000010000000000000BRAMARACNOR4115
012026030302AMOB3       010AUTOMOB     ON      NM   R$  000000000130100000000013280000000001290000000000130300000000013000000000001300000000000131100238000000000000032700000000000042637700000000000000009999123100000010000000000000BRAMOBACNOR9101
012026030302BIOM3       010BIOMM       ON      MA   R$  000000000062000000000006480000000000610000000000063200000000006450000000000638000000000064500323000000000000095100000000000060194500000000000000009999123100000010000000000000BRBIOMACNOR2113
012026030302ENEV3       010ENEVA       ON      NM   R$  000000000205200000000020860000000002021000000000204600000000020490000000002041000000000205042620000000000017738500000000036307167300000000000000009999123100000010000000000000BRENEVACNOR8107
012026030302ADMF3       010CIABRASF    ON      NM   R$  000000000139000000000013900000000001390000000000139000000000013900000000001220000000000145000001000000000000000100000000000000139000000000000000009999123100000010000000000000BRADMFACNOR3101
012026030302AERI3       010AERIS       ON      NM   R$  000000000027900000000002790000000000271000000000027500000000002760000000000274000000000027600126000000000000033300000000000009162100000000000000009999123100000010000000000000BRAERIACNOR4102
012026030302AFLT3       010AFLUENTE T  ON           R$  000000000073100000000007310000000000731000000000073100000000007310000000000731000000000076300002000000000000000300000000000000219300000000000000009999123100000010000000000000BRAFLTACNOR1126
012026030302AGRO3       010BRASILAGRO  ON      NM   R$  000000000212600000000021450000000002090000000000212300000000021160000000002114000000000211701783000000000000224100000000000475880000000000000000009999123100000010000000000000BRAGROACNOR7116
012026030302AHEB3       010SPTURIS     ON           R$  000000000250000000000025000000000002500000000000250000000000025000000000002300000000000260000001000000000000000100000000000000250000000000000000009999123100000010000000000000BRAHEBACNOR0106
012026030302B3SA3       010B3          ON      NM   R$  000000000177600000000017870000000001713000000000174500000000017540000000001753000000000175774066000000000070126200000000122434875400000000000000009999123100000010000000000000BRB3SAACNOR6140
012026030302TOKY3       010GRUPO TOKY  ON      NM   R$  000000000005700000000000570000000000053000000000005400000000000540000000000053000000000005400154000000000000345300000000000018880100000000000000009999123100000010000000000000BRTOKYACNOR5101
012026030302VLID3       010VALID       ON      NM   R$  000000000215900000000021590000000002081000000000211400000000021290000000002114000000000212902982000000000000392300000000000829488400000000000000009999123100000010000000000000BRVLIDACNOR5148
012026030302VSTE3       010VESTE       ON      NM   R$  000000000040000000000004050000000000389000000000039600000000003890000000000384000000000039000040000000000000018800000000000007457800000000000000009999123100000010000000000000BRVSTEACNOR5104
012026030302VTRU3       010VITRUEDUCA  ON      NM   R$  000000000141500000000014270000000001393000000000141000000000014140000000001414000000000141503114000000000000404500000000000570448000000000000000009999123100000010000000000000BRVTRUACNOR3101
012026030302VULC3       010VULCABRAS   ON      NM   R$  000000000185000000000018500000000001783000000000180400000000017930000000001788000000000179307992000000000001831100000000003304285400000000000000009999123100000010000000000000BRVULCACNOR2181
012026030302VVEO3       010VIVEO       ON      NM   R$  000000000015000000000001500000000000138000000000014000000000001380000000000138000000000014001714000000000002733900000000000385364300000000000000009999123100000010000000000000BRVVEOACNOR0104
012026030302WDCN3       010WDC NETWORKSON      NM   R$  000000000025500000000002570000000000248000000000025100000000002570000000000250000000000025700052000000000000029500000000000007412200000000000000009999123100000010000000000000BRWDCNACNOR2100
012026030302WEGE3       010WEG         ON      NM   R$  000000000472200000000048180000000004605000000000472900000000047400000000004740000000000474437810000000000013648400000000064544089200000000000000009999123100000010000000000000BRWEGEACNOR0234
012026030302SBFG3       010GRUPO SBF   ON      NM   R$  000000000122500000000012340000000001168000000000119000000000011890000000001180000000000118905783000000000002077500000000002472817700000000000000009999123100000010000000000000BRSBFGACNOR1104
012026030302SBSP3       010SABESP      ON      NM   R$  000000001475300000000149510000000014478000000001474400000000148190000000014806000000001482021959000000000004240400000000062521288800000000000000009999123100000010000000000000BRSBSPACNOR5165
012026030302SYNE3       010SYN PROP TECON      NM   R$  000000000047800000000004780000000000461000000000046600000000004660000000000466000000000046702339000000000000588000000000000274392700000000000000009999123100000010000000000000BRSYNEACNOR2107
012026030302TAEE11      010TAESA       UNT     N2   R$  000000000425000000000042510000000004145000000000420700000000042200000000004220000000000422212853000000000002606500000000010965899500000000000000009999123100000010000000000000BRTAEECDAM10153
012026030302TAEE3       010TAESA       ON      N2   R$  000000000145400000000014540000000001371000000000139100000000013900000000001390000000000139700832000000000000137700000000000191574200000000000000009999123100000010000000000000BRTAEEACNOR9153
012026030302TAEE4       010TAESA       PN      N2   R$  000000000145100000000014600000000001390000000000141000000000014190000000001410000000000141901156000000000000241000000000000339946100000000000000009999123100000010000000000000BRTAEEACNPR6153
012026030302VIVR3       010VIVER       ON  ES  NM   R$  000000000004800000000000490000000000045000000000004600000000000470000000000046000000000004700102000000000000146600000000000006864500000000000000009999123100000010000000000000BRVIVRACNOR4126
012026030302VIVT3       010TELEF BRASILON  EJ       R$  000000000406400000000041820000000004058000000000413500000000041570000000004157000000000415825022000000000006162600000000025483824800000000000000009999123100000010000000000000BRVIVTACNOR0200
012026030302SAPR11      010SANEPAR     UNT     N2   R$  000000000441500000000044400000000004201000000000426500000000042710000000004251000000000427917482000000000003020200000000012883941700000000000000009999123100000010000000000000BRSAPRCDAM13121
012026030302SAPR3       010SANEPAR     ON      N2   R$  000000000102900000000010340000000000974000000000098900000000009920000000000989000000000099201209000000000000238000000000000235547500000000000000009999123100000010000000000000BRSAPRACNOR9162
012026030302SAPR4       010SANEPAR     PN      N2   R$  000000000084900000000008510000000000806000000000082000000000008200000000000818000000000082104169000000000002038100000000001672615100000000000000009999123100000010000000000000BRSAPRACNPR6162
012026030302SUZB3       010SUZANO S.A. ON      NM   R$  000000000575200000000058420000000005645000000000571100000000057270000000005723000000000572727513000000000009151000000000052267938400000000000000009999123100000010000000000000BRSUZBACNOR0135
012026030302VALE3       010VALE        ON      NM   R$  000000000852500000000085310000000008255000000000839400000000084480000000008440000000000844866067000000000036088800000000302930073100000000000000009999123100000010000000000000BRVALEACNOR0219
012026030302VBBR3       010VIBRA       ON      NM   R$  000000000286200000000029980000000002855000000000295900000000029690000000002961000000000296934270000000000012421900000000036762002700000000000000009999123100000010000000000000BRVBBRACNOR1114
012026030302VITT3       010VITTIA      ON      NM   R$  000000000042500000000004260000000000402000000000040800000000004070000000000407000000000040901080000000000000199800000000000081647600000000000000009999123100000010000000000000BRVITTACNOR4113
012026030302VIVA3       010VIVARA S.A. ON      NM   R$  000000000299000000000031240000000002912000000000303300000000030830000000003082000000000308322876000000000005740300000000017415742100000000000000009999123100000010000000000000BRVIVAACNOR0109
012026030302RVEE3       010REVEE       ON      NM   R$  000000000015200000000001600000000000149000000000015200000000001490000000000130000000000014900012000000000000002500000000000000381000000000000000009999123100000010000000000000BRRVEEACNOR9102
012026030302ANIM3       010ANIMA       ON      NM   R$  000000000047600000000004790000000000450000000000046100000000004630000000000462000000000046313812000000000008318400000000003838389800000000000000009999123100000010000000000000BRANIMACNOR6110
012026030302BMIN4       010MERC INVEST PN           R$  000000000178200000000017820000000001721000000000175100000000017210000000001558000000000200000002000000000000000200000000000000350300000000000000009999123100000010000000000000BRBMINACNPR1177
012026030302BMKS3       010BIC MONARK  ON           R$  000000003870000000000387000000000037131000000003758200000000372500000000037250000000003829900010000000000000000040000000000001503287000000000000009999123100000010000000000000BRBMKSACNOR9169
012026030302BMOB3       010BEMOBI TECH ON      NM   R$  000000000242200000000024240000000002277000000000232400000000023450000000002319000000000234604787000000000000769600000000001788638900000000000000009999123100000010000000000000BRBMOBACNOR7107
012026030302BNBR3       010NORD BRASIL ON           R$  000000001222000000000122200000000012220000000001222000000000122200000000011859000000001220000001000000000000000100000000000001222000000000000000009999123100000010000000000000BRBNBRACNOR8211
012026030302AVLL3       010ALPHAVILLE  ON      NM   R$  000000000008000000000000810000000000080000000000008000000000000810000000000080000000000008200002000000000000005600000000000000453500000000000000009999123100000010000000000000BRAVLLACNOR5103
012026030302AXIA3       010AXIA ENERGIAON      N1   R$  000000000600100000000060600000000005855000000000594300000000059490000000005946000000000595051877000000000017365700000000103209951400000000000000009999123100000010000000000000BRAXIAACNOR0102
012026030302AXIA6       010AXIA ENERGIAPNB     N1   R$  000000000657200000000066030000000006387000000000650000000000064870000000006463000000000649208048000000000001622400000000010546026000000000000000009999123100000010000000000000BRAXIAACNPB1103
012026030308CTSA4       010SANTANENSE  PN           R$  000000000017400000000001740000000000174000000000017400000000001740000000000173000000000021000001000000000000000200000000000000034800000000000000009999123100000010000000000000BRCTSAACNPR0063
012026030308BOBR4       010BOMBRIL     PN           R$  000000000012300000000001230000000000123000000000012300000000001230000000000123000000000012500001000000000000000100000000000000012300000000000000009999123100000010000000000000BRBOBRACNPR3128
012026030308BDLL3       010BARDELLA    ON           R$  000000000070100000000007010000000000701000000000070100000000007010000000000700000000000081700001000000000000000100000000000000070100000000000000009999123100000010000000000000BRBDLLACNOR1149
012026030308LIGT3       010LIGHT S/A   ON      NM   R$  000000000048700000000004910000000000467000000000047800000000004830000000000482000000000048302955000000000001325300000000000634482800000000000000009999123100000010000000000000BRLIGTACNOR2125
012026030308RSID3       010ROSSI RESID ON      NM   R$  000000000017500000000001750000000000175000000000017500000000001750000000000175000000000017700003000000000000000900000000000000157500000000000000009999123100000010000000000000BRRSIDACNOR8121
012026030308OIBR3       010OI          ON      N1   R$  000000000001700000000000170000000000017000000000001700000000000170000000000016000000000001700304000000000002825600000000000048035200000000000000009999123100000010000000000000BROIBRACNOR1112
012026030308OIBR4       010OI          PN      N1   R$  000000000013200000000001320000000000132000000000013200000000001320000000000132000000000015200003000000000000000400000000000000052800000000000000009999123100000010000000000000BROIBRACNPR8111
012026030308OSXB3       010OSX BRASIL  ON      NM   R$  000000000017000000000001700000000000170000000000017000000000001700000000000169000000000018200008000000000000001400000000000000238000000000000000009999123100000010000000000000BROSXBACNOR8109
012026030308NEXP3       010NEXPE       ON           R$  000000000028700000000002870000000000278000000000028000000000002780000000000278000000000028300006000000000000001500000000000000421100000000000000009999123100000010000000000000BRNEXPACNOR0101
012026030308FICT3       010FICTORALIMENON           R$  000000000006900000000000690000000000056000000000006100000000000610000000000058000000000006100143000000000000297700000000000018392600000000000000009999123100000010000000000000BRFICTACNOR3101
012026030308JFEN3       010JOAO FORTES ON           R$  000000000009400000000000970000000000090000000000009200000000000910000000000090000000000009100086000000000000044100000000000004083200000000000000009999123100000010000000000000BRJFENACNOR0061
012026030308CTAX3       010CONTAX      ON           R$  000000000008200000000000820000000000078000000000007800000000000780000000000078000000000008700013000000000000008800000000000000693100000000000000009999123100000010000000000000BRCTAXACNOR3119
012026030308PMAM3       010PARANAPANEMAON  ES  NM   R$  000000000006400000000000640000000000058000000000006000000000000610000000000061000000000006200760000000000002251100000000000135770800000000000000009999123100000010000000000000BRPMAMACNOR3046
012026030308RPMG3       010PET MANGUINHON           R$  000000000023900000000002390000000000234000000000023800000000002360000000000232000000000023600004000000000000001600000000000000381200000000000000009999123100000010000000000000BRRPMGACNOR9194
012026030308AMBP3       010AMBIPAR     ON      NM   R$  000000000002400000000000250000000000023000000000002300000000000230000000000023000000000002400962000000000008402000000000000199431800000000000000009999123100000010000000000000BRAMBPACNOR6105
012026030308AMER3       010AMERICANAS  ON      NM   R$  000000000053700000000005410000000000510000000000052000000000005180000000000514000000000051802565000000000002074600000000001078926700000000000000009999123100000010000000000000BRAMERACNOR6103
012026030308AGXY3       010AGROGALAXY  ON      NM   R$  000000000022100000000002230000000000215000000000021700000000002170000000000216000000000021900129000000000000019800000000000004302500000000000000009999123100000010000000000000BRAGXYACNOR4104
012026030308HOOT4       010HOTEIS OTHONPN           R$  000000000069900000000006990000000000690000000000069600000000006940000000000690000000000069500014000000000000011600000000000008083900000000000000009999123100000010000000000000BRHOOTACNPR9015
012026030310ABCB10      010ABC BRASIL  PN  REC N2   R$  000000000251300000000026960000000002513000000000259500000000026800000000002570000000000000000009000000000000001300000000000003373700000000000000009999123100000010000000000000BRABCBR20PR9149
012026030310AZUL12      010AZUL        DIR     N2   R$  000000001649900000000164990000000012720000000001410000000000154000000000012812000000001469800075000000000280000000000000000003960227000000000000009999123110000000000000000000BRAZULD02M17101
012026030310AZUL14      010AZUL        DIR     N2   R$  000000000470000000000069990000000004040000000000520000000000045000000000004100000000000460000207000000000676000000000000000003530679000000000000009999123110000000000000000000BRAZULD03M16101
012026030310AZUL16      010AZUL        DIR     N2   R$  000000001450000000000145000000000011474000000001240000000000116000000000012000000000001280000029000000000043000000000000000000533257000000000000009999123110000000000000000000BRAZULD04M15101
012026030310HYPE1       010HYPERA      DIR ORD NM   R$  000000000018000000000001800000000000075000000000010100000000000990000000000091000000000009901307000000000000483300000000000048942800000000000000009999123100000010000000000000BRHYPED02OR3149
012026030310BMEB9       010MERCANTIL   ON  REC N1   R$  000000000670000000000069000000000006700000000000675000000000069000000000006700000000000692300004000000000000000400000000000002700000000000000000009999123100000010000000000000BRBMEBR04OR7209
012026030310BMGB10      010BANCO BMG   PN  REC N1   R$  000000000048200000000004930000000000480000000000048800000000004900000000000490000000000050000029000000000000005400000000000002636000000000000000009999123100000010000000000000BRBMGBR03PR1117
012026030310DIVS12      010SPARTA DIVS DIR          R$  000000000008600000000000860000000000038000000000007800000000000380000000000020000000000002900043000000000000018611000000000001469012000000000000009999123100000010000000000000BRDIVSD02M17114
012026030310PMAM1       010PARANAPANEMADIR ORD NM   R$  000000000000100000000000010000000000001000000000000100000000000010000000000000000000000000100207000000000000851900000000000000851900000000000000009999123100000010000000000000BRPMAMD10OR9045
012026030310VIVR13      010VIVER       DIR     NM   R$  000000000000100000000000010000000000001000000000000100000000000010000000000000000000000000100012000000000000107400000000000000107400000000000000009999123100000010000000000000BRVIVRD03M15125
012026030310VGIA12      010FIAGRO VGIA DIR          R$  000000000001000000000000130000000000008000000000001000000000000100000000000008000000000001003903000000000001396487000000000014756943000000000000009999123100000010000000000000BRVGIAD04M12153
012026030312CTXT11      010FII C TEXTILCI           R$  000000000053700000000005880000000000537000000000056000000000005880000000000562000000000058800016000000000000001044000000000000585067000000000000009999123100000010000000000000BRCTXTCTF014208
012026030312LMAI11      010LABINAFII   CI  ER       R$  000000000372000000000037200000000003720000000000372000000000037200000000003601000000000370000001000000000000000001000000000000003720000000000000009999123100000010000000000000BRLMAICTF003102
012026030312MXRF11      010FII MAXI RENCI  ER       R$  000000000098200000000009830000000000965000000000097000000000009660000000000966000000000096836342000000000002754338000000002672995932000000000000009999123100000010000000000000BRMXRFCTF008275
012026030312BPML11      010FII BTG SHOPCI           R$  000000000948100000000096430000000009456000000000949800000000095200000000009520000000000956801123000000000000012586000000000119547234000000000000009999123100000010000000000000BRBPMLCTF006154
012026030312BIME11      010FII BRIO ME CI           R$  000000000068900000000006890000000000679000000000068200000000006850000000000680000000000068500125000000000000005621000000000003838970000000000000009999123100000010000000000000BRBIMECTF006152
012026030312RBFM11      010FII RIOB MT CI  ER       R$  000000000113600000000011360000000001108000000000111600000000011120000000001108000000000111201427000000000000035291000000000039415271000000000000009999123100000010000000000000BRRBFMCTF004102
012026030312EQIR11      010FII EQI RECECI  ER       R$  000000000085300000000008600000000000853000000000085600000000008580000000000857000000000085800127000000000000005157000000000004417548000000000000009999123100000010000000000000BREQIRCTF003153
012026030312IRIM11      010FII IRIM    CI           R$  000000000646000000000064780000000006405000000000643700000000064590000000006437000000000645906292000000000000101918000000000656095854000000000000009999123100000010000000000000BRIRIMCTF003156
012026030312AIEC11      010FII AUTONOMYCI  ER       R$  000000000592000000000059850000000005920000000000592300000000059530000000005952000000000595400109000000000000003424000000000020280975000000000000009999123100000010000000000000BRAIECCTF009166
012026030312AJFI11      010FII AJ MALLSCI           R$  000000000083700000000008380000000000835000000000083500000000008380000000000835000000000083800333000000000000019492000000000016278138000000000000009999123100000010000000000000BRAJFICTF001128
012026030312ALMI11      010FII TORRE ALCI  ER       R$  000000006490000000000649000000000064282000000006453900000000642820000000063666000000007000000003000000000000000012000000000000774479000000000000009999123100000010000000000000BRALMICTF003269
012026030312ABCP11      010FII ABC IMOBCI  ER       R$  000000000804400000000080440000000008001000000000801900000000080010000000008001000000000804400062000000000000000390000000000003127494000000000000009999123100000010000000000000BRABCPCTF000361
012026030312AZPL11      010FII AZPL    CI  ER       R$  000000000076800000000007680000000000761000000000076400000000007680000000000761000000000076802175000000000000072533000000000055469871000000000000009999123100000010000000000000BRAZPLCTF000122
012026030312BTYU11      010FII BTYU    CI           R$  000000000092000000000009210000000000854000000000088400000000009210000000000907000000000092100046000000000000000586000000000000518033000000000000009999123100000010000000000000BRBTYUCTF004122
012026030312CACR11      010CARTESIA FIICI  ER       R$  000000000805400000000080750000000007965000000000800200000000079860000000007984000000000798601253000000000000018327000000000146658687000000000000009999123100000010000000000000BRCACRCTF004155
012026030312CARE11      010FII DEA CARECI           R$  000000000055400000000005550000000000542000000000055100000000005440000000000544000000000055400054000000000000000642000000000000353979000000000000009999123100000010000000000000BRCARECTF000113
012026030312EURO11      010FII EUROPAR CI  ER       R$  000000003244000000000324450000000032000000000003232600000000324440000000032001000000003244400036000000000000000363000000000011734409000000000000009999123100000010000000000000BREUROCTF011381
012026030312EXES11      010FII EXES    CI  ER       R$  000000000094600000000009460000000000940000000000094200000000009440000000000942000000000094400070000000000000006781000000000006389796000000000000009999123100000010000000000000BREXESCTF006147
012026030312ITIP11      010FII INTER IPCI  ER       R$  000000000656500000000066130000000006565000000000659800000000065800000000006580000000000661300390000000000000002288000000000015097006000000000000009999123100000010000000000000BRITIPCTF002150
012026030312ITIT11      010FII INTER ITCI  ER       R$  000000000733400000000073950000000007276000000000736900000000073800000000007379000000000738000070000000000000005849000000000043105376000000000000009999123100000010000000000000BRITITCTF004150
012026030312ITRI11      010FII ITRI    CI  ER       R$  000000000848300000000089380000000008454000000000881800000000087670000000008767000000000878516578000000000000193765000000001708658626000000000000009999123100000010000000000000BRITRICTF008123
012026030312KFOF11      010FII KINEAFOFCI  ER       R$  000000000841700000000084170000000008304000000000833700000000083250000000008325000000000833402291000000000000017683000000000147440733000000000000009999123100000010000000000000BRKFOFCTF006190
012026030312CEOC11      010FII CEO CCP CI           R$  000000000439600000000043960000000004392000000000439200000000043920000000004388000000000439200011000000000000000197000000000000865228000000000000009999123100000010000000000000BRCEOCCTF003235
012026030312CLIN11      010FII CLAVE INCI           R$  000000000929800000000093270000000009272000000000928800000000092980000000009281000000000929801518000000000000006931000000000064378851000000000000009999123100000010000000000000BRCLINCTF007128
012026030312BCRI11      010FII BEES CRICI  ER       R$  000000000663800000000066380000000006535000000000659300000000065800000000006572000000000658000880000000000000006675000000000044008840000000000000009999123100000010000000000000BRBCRICTF009236
012026030312BTLG11      010FII BTLG    CI           R$  000000001034000000000103700000000010329000000001034900000000103320000000010332000000001034927104000000000000163256000000001689592978000000000000009999123100000010000000000000BRBTLGCTF000185
012026030312LASC11      010FII LEGATUS CI  ER       R$  000000001129300000000114980000000011150000000001129100000000114980000000011191000000001149900012000000000000000069000000000000779126000000000000009999123100000010000000000000BRLASCCTF003176
012026030312LIFE11      010FII LIFE    CI  ER       R$  000000000088500000000008860000000000877000000000088000000000008780000000000878000000000088006270000000000000081723000000000071920451000000000000009999123100000010000000000000BRLIFECTF017153
012026030312FLRP11      010FII FLORIPA CI  ER       R$  000000000210700000000021440000000002072000000000212800000000020980000000002074000000000209800060000000000000005716000000000012168556000000000000009999123100000010000000000000BRFLRPCTF006294
012026030312HCRI11      010FII CRIANCA CI           R$  000000002925000000000296500000000029250000000002952400000000296450000000029315000000002964500011000000000000000012000000000000354299000000000000009999123100000010000000000000BRHCRICTF006349
012026030312HCTR11      010FII HECTARE CI           R$  000000000220200000000022070000000002160000000000217400000000021620000000002162000000000216901579000000000000047338000000000102921294000000000000009999123100000010000000000000BRHCTRCTF003189
012026030312HDEL11      010FII HEDGE DVCI           R$  000000000950000000000095000000000009500000000000950000000000095000000000009500000000000989500001000000000000000027000000000000256500000000000000009999123100000010000000000000BRHDELCTF006107
012026030312HFOF11      010FII HTOPFOF3CI  ER       R$  000000000070000000000007000000000000681000000000068500000000006850000000000683000000000068508014000000000000806496000000000552878566000000000000009999123100000010000000000000BRHFOFCTF002212
012026030312HGBL11      010FII HGBL    CI  ER       R$  000000000092000000000009300000000000914000000000092100000000009250000000000916000000000092500089000000000000001212000000000001117182000000000000009999123100000010000000000000BRHGBLCTF005127
